:100000000C94AA000C94520C0C942B0C0C94D2005F
:100010000C94D2000C94D2000C94D2000C94D20018
:100020000C94D2000C94D2000C94D2000C94D20008
:100030000C94D2000C94D2000C94D2000C94D200F8
:100040000C94E10B0C94D2000C949F0C0C94790C42
:100050000C94D2000C94D2000C94D2000C94D200D8
:100060000C94D2000C94D20008000000BE922449E7
:10007000123EABAAAA2ABECDCCCC4C3E00000080DA
:10008000BEABAAAAAA3E00000000BF000000803F4D
:100090000000000000084178D3BB4387D1133D190D
:1000A0000E3CC3BD4282AD2B3E68EC8276BED98F3A
:1000B000E1A93E4C80EFFFBE01C4FF7F3F0000007E
:1000C0000000436F6D6D697474656420636F6E66C4
:1000D000696775726174696F6E202E2E2E0023235E
:1000E00023204457313030302D61726475696E6F52
:1000F0002D72616E67696E672D74616720232323FB
:100100000000000000240027002A00000000002555
:100110000028002B00040404040404040402020266
:100120000202020303030303030102040810204038
:1001300080010204081020010204081020000000C1
:100140000800020100000304070000000000000096
:100150000000D10C11241FBECFEFD8E0DEBFCDBF11
:1001600012E0A0E0B1E0E4EFFDE302C005900D92E3
:10017000AC3DB107D9F725E0ACEDB2E001C01D926E
:10018000AB34B207E1F710E0CAEAD0E004C021972F
:10019000FE010E944A1AC93AD107C9F70E947E0D92
:1001A0000C94F81E0C94000090E0FC01E35CFE4F00
:1001B0002491FC01E75DFE4F3491FC01EB5EFE4FA4
:1001C000E491EE23C9F0222339F0233001F1A8F4A1
:1001D000213019F1223029F1F0E0EE0FFF1FE55F29
:1001E000FE4FA591B4918FB7F894EC91611126C0A0
:1001F00030953E233C938FBF08952730A9F02830D7
:10020000C9F0243049F7809180008F7D03C0809130
:1002100080008F7780938000DFCF84B58F7784BD97
:10022000DBCF84B58F7DFBCF8091B0008F7780933B
:10023000B000D2CF8091B0008F7DF9CF3E2BDACFC6
:10024000CF93DF9390E0FC01E75DFE4F24918B5E3E
:100250009E4FFC0184918823D1F090E0880F991F74
:10026000FC01EF5FFE4FA591B491FC01E55FFE4FED
:10027000C591D49161110EC09FB7F8948C91E22F73
:10028000E0958E238C932881E223E8839FBFDF9142
:10029000CF9108958FB7F894EC91E22BEC938FBF38
:1002A000F6CF3FB7F89480910B0390910C03A09187
:1002B0000D03B0910E0326B5A89B05C02F3F19F082
:1002C0000196A11DB11D3FBFBA2FA92F982F8827D6
:1002D000BC01CD01620F711D811D911D42E0660FB1
:1002E000771F881F991F4A95D1F708958F929F9283
:1002F000AF92BF92CF92DF92EF92FF924B015C01DF
:100300000E9451016B017C010E9451016C197D0911
:100310008E099F09683E734081059105A8F321E08D
:10032000821A9108A108B10888EEC80E83E0D81E91
:10033000E11CF11C81149104A104B10429F7FF9080
:10034000EF90DF90CF90BF90AF909F908F900895E7
:1003500081E080930503089581E08093040308956C
:100360000895DC01ED91FC910190F081E02D09945C
:10037000AF92BF92CF92DF92EF92FF920F931F93B3
:10038000CF93DF936C017B018B01040F151FEB01F1
:100390005E01AE18BF08C017D10759F06991D601A8
:1003A000ED91FC910190F081E02DC6010995892B1A
:1003B00079F7C501DF91CF911F910F91FF90EF90D9
:1003C000DF90CF90BF90AF900895FC01538D448D86
:1003D000252F30E0842F90E0821B930B541710F0F0
:1003E000CF96089501970895FC01918D828D9817FD
:1003F00061F0A28DAE0FBF2FB11D5D968C91928DD5
:100400009F5F9F73928F90E008958FEF9FEF089505
:10041000FC01918D828D981731F0828DE80FF11DCE
:10042000858D90E008958FEF9FEF0895FC01918DE9
:10043000228D892F90E0805C9F4F821B91098F73E2
:10044000992708958DE293E00E94160221E0892BFE
:1004500009F420E0822F089580E090E0892B29F0B4
:100460000E94220281110C9400000895FC01A48DC9
:10047000A80FB92FB11DA35ABF4F2C91848D90E0C6
:1004800001968F739927848FA689B7892C93A089A9
:10049000B1898C91837080648C93938D848D981333
:1004A00006C00288F389E02D80818F7D80830895C6
:1004B000EF92FF920F931F93CF93DF93EC0181E0B4
:1004C000888F9B8D8C8D98131AC0E889F98980815B
:1004D00085FF15C09FB7F894EE89FF896083E8898E
:1004E000F98980818370806480839FBF81E090E080
:1004F000DF91CF911F910F91FF90EF900895F62E0D
:100500000B8D10E00F5F1F4F0F731127E02E8C8DA6
:100510008E110CC00FB607FCFACFE889F9898081EB
:1005200085FFF5CFCE010E943602F1CFEB8DEC0FA7
:10053000FD2FF11DE35AFF4FF0829FB7F8940B8F08
:10054000EA89FB8980818062CFCFCF93DF93EC0172
:10055000888D8823B9F0AA89BB89E889F9898C91AB
:1005600085FD03C0808186FD0DC00FB607FCF7CF67
:100570008C9185FFF2CF808185FFEDCFCE010E9467
:100580003602E9CFDF91CF9108952FB7F89480918B
:10059000070390910803A0910903B0910A032FBFAC
:1005A0008093000390930103A0930203B09303038D
:1005B00008952F923F924F925F926F927F928F9207
:1005C0009F92AF92BF92CF92DF92EF92FF920F93E2
:1005D0001F93CF93DF93CDB7DEB76B970FB6F89429
:1005E000DEBF0FBECDBFFC017A8F698F9280438042
:1005F000548065807680878020843184292D342D35
:10060000452D562D672D782DC101A0E00E943E1A80
:1006100001F560E3898D9A8D0E94B10181E090E03F
:100620006B960FB6F894DEBF0FBECDBFDF91CF91B2
:100630001F910F91FF90EF90DF90CF90BF90AF9000
:100640009F908F907F906F905F904F903F902F90F2
:100650000895C101A0E00E943E1A0CF062C06DE254
:10066000898D9A8D0E94B101292D342D452D562D4D
:10067000672D782DC1010E94DA19922E432E542E37
:10068000652E762E872E1C0181E08B8F188EFE0141
:100690003196FF8BEE8B9AE0A92EB12CC12CD12C78
:1006A000E12CF12C00E010E0292D342D452D562DA4
:1006B000672D782DC1010E944C19E1E0F0E0EC0FAC
:1006C000FD1FA88DEA0FF11DA6EF2A9F900C1124A3
:1006D0009082922E432E542E652E762E872E1C014C
:1006E000E88DEF5FE88FA0E00E943E1AA1F67E2E13
:1006F000FB8D7F0E88248394912C8C0E9D1E8E0E74
:10070000911CEE89FF89E815F90579F0F4016291F1
:100710004F016A3040F4605D898D9A8D0E94B1016D
:10072000F0CF1B8EB3CF695CF7CF872D90E078CFE9
:100730000F931F93CF93DF93FC01128213821482D5
:1007400015821682178210861186EB01B0E0A0E0B8
:10075000299130E040E050E060E070E080E090E01F
:100760000A2F0E94EA191281212B1381312B148147
:10077000412B1581512B1681612B1781712B10850F
:10078000812B1185912B2283338344835583668388
:100790007783808791871896A832B105C9F6DF91D3
:1007A000CF911F910F910895FC0186E191E0918313
:1007B0008083128213821482158216821782108619
:1007C000118608959FB7F8942091EC028091E6027B
:1007D000213019F48DBB9FBF08958FBF0895CF922C
:1007E000DF92EF92FF92280F391FF0E0E0E06A01FC
:1007F0007B010E2E04C0F594E794D794C7940A9415
:10080000D2F7DC01CD92CD013896A217B30779F764
:10081000FF90EF90DF90CF900895282F30E0E0E236
:10082000F3E092819F73A90166E0440F551F6A951A
:10083000E1F7942B9283A9015595479555954795D6
:10084000A3E0220F331FAA95E1F7242B2383809383
:10085000060108958EBD00000DB407FEFDCF8EB5D4
:1008600008952091EC02222381F03FB7F894209163
:10087000EC02213069F42DB32093E6024DB32091B0
:10088000EB02209524232DBB3FBF8CBD9DBD089559
:100890003093E602FACF7F928F929F92AF92BF92EF
:1008A000CF92DF92EF92FF920F931F93CF93DF933C
:1008B00000D01F92CDB7DEB7D42EC52E79016F3F81
:1008C000710549F58068898301E0E0910001F091AC
:1008D0000101808191810E9431047090EF0260E0FB
:1008E000872D0E94D400CE0101964C015C0110E0DE
:1008F000C501881999098017910700F10D2D1C2D4C
:10090000E00EF11E0E151F05F9F0F80181918F011F
:100910000E942A04F7CF806C89836038710518F42F
:100920006A8302E0D2CF862F80688A83660F672FA2
:10093000661F770B71956B8303E0C7CFF50181913B
:100940005F010E942A04D4CF8FE090E00197F1F775
:1009500061E0872D0E94D4008091EC02882391F001
:100960000F900F900F90DF91CF911F910F91FF90FB
:10097000EF90DF90CF90BF90AF909F908F907F903F
:100980000C94E2030F900F900F90DF91CF911F9185
:100990000F91FF90EF90DF90CF90BF90AF909F901E
:1009A0008F907F900895DF92EF92FF920F931F93A5
:1009B000CF93DF931F92CDB7DEB708E213E0F801C3
:1009C000818183788183E4E2F3E0828180648283A1
:1009D00080E2E82E83E0F82EF70182818F7C82602E
:1009E000828390E4D92ED98221E030E0AE014F5FBE
:1009F0005F4F70E060E081E20E944B0410920B01B7
:100A0000F8018281F7019281937F9460928391E053
:100A100090930C01807C8962F8018283D0920A0154
:100A20008AE0809309010F90DF91CF911F910F9180
:100A3000FF90EF90DF9008958091EE0281113EC00B
:100A400010921F03809126038C7F1092F90284601C
:100A50008093260381E080930801809124038E7F98
:100A6000809324039091F5028091F6022091F70281
:100A700025602093F7028B7F806F8093F602986841
:100A80009093F502809127038062809327030E9450
:100A9000D30485E58093200385E080930D01809148
:100AA0000C01813031F484E00E940D0484E00C9448
:100AB0000D048AE00E940D048AE0F9CF0895CF93D7
:100AC00080910801C2E1811101C0C0E12C2F30E00A
:100AD0004FE053E06FEF70E089E00E944B04C09359
:100AE000280380912903807E80932903CF91089564
:100AF000E1EEF2E08081806F808325E030E0AF019D
:100B00006FEF70E08FE00C944B04E1EEF2E0828135
:100B10009181946F91838560828325E030E0AF01FD
:100B20006FEF70E08FE00C944B048091E70290919E
:100B30000801911111C081608093E7028091E80261
:100B400081608093E80224E030E047EE52E06FEFEE
:100B500070E08DE00C944B048E7FEECF24E030E00B
:100B600044E253E06FEF70E084E00C944B047F921A
:100B70008F929F92AF92BF92CF92DF92EF92FF92AD
:100B80000F931F93CF93DF9300D01F92CDB7DEB7A3
:100B90004A0179016F3F710509F5898301E0E09110
:100BA0000001F0910101808191810E9431047090D7
:100BB000EF0260E0872D0E94D400CE0101965C0117
:100BC0006C0110E0C6018A199B098017910788F40F
:100BD000F60181916F010E942A04F4CF8064898319
:100BE0006A8302E060387105D0F281E08B8303E014
:100BF000D6CF8401E80CF91C80E00E942A04F80199
:100C000081938F01EE15FF05B9F78FE090E0019712
:100C1000F1F761E0872D0E94D4008091EC028823D7
:100C200091F00F900F900F90DF91CF911F910F9146
:100C3000FF90EF90DF90CF90BF90AF909F908F90FC
:100C40007F900C94E2030F900F900F90DF91CF9163
:100C50001F910F91FF90EF90DF90CF90BF90AF90DA
:100C60009F908F907F9008950F931F93CF93DF9362
:100C700000D000D01F92CDB7DEB78B0189831A82D6
:100C800022E030E0AE014F5F5F4F64E070E08DE244
:100C90000E944B0483E08B8321E030E0AE014D5F86
:100CA0005F4F66E070E08DE20E944B0481E08C8330
:100CB00021E030E0AE014C5F5F4F66E070E08DE216
:100CC0000E944B0424E030E0A8016AE070E08DE26D
:100CD0000E94B7051D8221E030E0AE014B5F5F4FFF
:100CE00066E070E08DE20E944B040F900F900F9031
:100CF0000F900F90DF91CF911F910F9108950F9357
:100D00001F93CF93DF9300D000D01F92CDB7DEB7F3
:100D10008C0125E030E0AE014F5F5F4F70E060E096
:100D200087E10E94B705BE016F5F7F4FC8010E9437
:100D300098030F900F900F900F900F90DF91CF912D
:100D40001F910F910895FC0101900020E9F7319760
:100D5000AF01481B590BBC018DE293E00C94B80124
:100D60008F929F92AF92BF920F931F93CF93DF9377
:100D7000CDB7DEB7A1970FB6F894DEBF0FBECDBFDB
:100D800019A2423008F44AE08E010F5D1F4F842EF5
:100D9000912CB12CA12CA50194010E941919E62FC8
:100DA000B901CA01EA30F4F4E05DD801EE938D0197
:100DB000232B242B252B79F790E080E0109719F056
:100DC000CD010E94A306A1960FB6F894DEBF0FBE18
:100DD000CDBFDF91CF911F910F91BF90AF909F90AA
:100DE0008F900895E95CE1CFCF93DF930E94A30633
:100DF000EC0182E791E00E94A3068C0F9D1FDF911A
:100E0000CF9108950F931F93CF93DF938C01D0E080
:100E1000C0E0F801EC0FFD1F6491662341F08DE204
:100E200093E00E945802892B11F02196F2CF82E7BD
:100E300091E00E94A3068C0F9D1FDF91CF911F911F
:100E40000F9108954F925F926F927F928F929F922F
:100E5000AF92BF92CF92DF92EF92FF920F931F93C8
:100E6000CF936B017C01742EAC019B010E94161C78
:100E7000882399F085E791E0CF911F910F91FF9022
:100E8000EF90DF90CF90BF90AF909F908F907F902A
:100E90006F905F904F900C94A30646015701E89421
:100EA000B7F82FEF3FEF4FE75FE7C501B4010E94AE
:100EB000161C81110DC02FEF3FEF4FE75FE7C50113
:100EC000B4010E948C1718161CF489E791E0D4CF66
:100ED0002FEF3FEF4FE75FE4C701B6010E94B91B58
:100EE00018161CF48DE791E0C7CF2FEF3FEF4FE7C7
:100EF0005FECC701B6010E948C1787FDF3CF20E09D
:100F000030E0A901C701B6010E948C1710E000E093
:100F100087FF0AC06DE28DE293E00E94B1018C016F
:100F2000F7FAF094F7F8F094C0E060E070E080E049
:100F30009FE37C1641F020E030E040E251E40E9463
:100F4000BD1ACF5FF6CFA70196010E94511A2B015F
:100F50003C010E94361B4B015C014AE00E94B00636
:100F60007C01E00EF11ECC23C1F1C501B4010E9449
:100F700091179B01AC01C301B2010E94501A4B01B1
:100F80005C016EE28DE293E00E94B101E80EF91E71
:100F9000C15018F120E030E040E251E4C501B40155
:100FA0000E94F2172B013C010E94361B4B01B12C11
:100FB000A12C4AE0C501B4010E94B006E80EF91E5A
:100FC000C501B4010E9491179B01AC01C301B2019C
:100FD0000E94501A4B015C01DBCFC701CF911F91DA
:100FE0000F91FF90EF90DF90CF90BF90AF909F90C8
:100FF0008F907F906F905F904F9008952F923F92C7
:101000004F925F926F927F928F929F92AF92BF9218
:10101000CF92DF92EF92FF920F931F93CF93DF93C4
:10102000CDB7DEB765970FB6F894DEBF0FBECDBF64
:1010300025E030E0AE01455F5F4F70E060E085E1A4
:101040000E94B705BE01655F7F4F87E395E00E9470
:10105000980322E030E0AE01405F5F4F66E070E051
:1010600082E10E94B70524E030E0AE014F5F5F4FA0
:101070006FEF70E080E10E94B705688879886B8126
:1010800070E0F4E076956795FA95E1F78C8120E1C0
:10109000829FC0011124682B792B10910C015DE611
:1010A000252E56E5352E55E1452E50E4552EEDE31F
:1010B000CE2EEAE8DE2EE3EEEE2EE2E4FE2E113036
:1010C00081F03DE6232E36E5332E35E9432E3FE30E
:1010D000532E41EEC42E4AE7D42E43EFE42E42E4D1
:1010E000F42E90E080E00E9491174B015C01B30167
:1010F00090E080E00E94911720E030E040E058E46A
:101100000E94F2176A8B7B8B8C8B9D8BA5019401BF
:10111000C501B4010E94F2179B01AC016A897B8969
:101120008C899D890E94BD1A0E94BE1B20E030E080
:1011300040E251E40E94F217A70196010E94501A62
:101140006B017C0120E030E040EB52EC0E948C17F8
:101150001816A4F420E030E040EB52E4C701B601D9
:101160000E94511AA20191010E94F2179B01AC0149
:10117000C701B6010E94511A6B017C0120E030E0EA
:1011800044E752E4C701B6010E94511A905820E08A
:1011900030E040E05FE30E94F2174B015C010E94E7
:1011A0002F1BDB011A161B060CF0B0C0AB014F5F02
:1011B0005F4F413151050CF0AEC020910D0124303C
:1011C00019F0273009F0BFC0113009F0A9C0FA01A9
:1011D000E25BFE4FE080F12C473051051CF4F194A6
:1011E000E194F108EE0CFF1CFD01E25BFE4FC080B4
:1011F000D12CA730B1051CF4D194C194D108CC0CEA
:10120000DD1CBD01BB0F880B990B0E9493179B013E
:10121000AC01C501B4010E94501A4B015C01B70139
:101220006C197D09072E000C880B990B0E949317EF
:101230009B01AC01C501B4010E94F2174B015C0196
:10124000B601DD0C880B990B0E9493179B01AC0132
:10125000C501B4010E94511A6B017C01CE010196B7
:101260000E94D40323EB33E245E553E4C701B60102
:101270000E94F2172FE632E143E85AE30E94F21788
:101280000E942F1B5B011B2D110F110B20913905A3
:1012900030913A0540913B0550913C0560913D05E8
:1012A00070913E0580913F0590914005C12ED12E51
:1012B000E12EF12E012F0E94351A2093390530932B
:1012C0003A0540933B0550933C0560933D05709370
:1012D0003E0580933F059093400565960FB6F894C0
:1012E000DEBF0FBECDBFDF91CF911F910F91FF9059
:1012F000EF90DF90CF90BF90AF909F908F907F90B6
:101300006F905F904F903F902F90089550E040E095
:10131000B0E0A0E052CF41E150E0A1E1B0E04DCF1C
:101320001230D9F6FA01E45CFE4FE080F12C473030
:1013300051051CF4F194E194F108EE0CFF1CFD0141
:10134000E45CFE4F54CF1130C1F4FA01E65DFE4F6C
:10135000E080F12C4A3051051CF4F194E194F1083D
:10136000FD01E65DFE4FC080D12CAA30B1050CF026
:1013700048CFD194C194D10844CF123009F0ADCFF9
:10138000FA01E85EFE4FE080F12C483051051CF474
:10139000F194E194F108FD01E85EFE4FC080D12C8C
:1013A000A830B1050CF02DCFE4CF0F93CF93DF938E
:1013B000FC0185E0DB011D928A95E9F7DB01D0E0B5
:1013C000C0E02281338144815581668177818085A7
:1013D00091850C2F0E94031A2D932896C832D105AF
:1013E00081F7DF91CF910F91089525E030E048E239
:1013F00053E06FEF70E088E00E944B049091080189
:101400008091E702911121C081608093E702809171
:10141000E70282608093E70224E030E047EE52E08A
:101420006FEF70E08DE00E944B048091FB028823F7
:1014300071F0E7EEF2E084E0DF011D928A95E9F7B2
:1014400081E08093EE020C9495058E7FDECF1092A2
:10145000EE020895E7EEF2E084E0DF011D928A9546
:10146000E9F780E480831092EE0224E030E0AF01DF
:101470006FEF70E08DE00C944B040E942A0AE7EEB7
:10148000F2E084E0DF011D928A95E9F70E94780579
:1014900082E08093EE020895AF92BF92CF92DF92E6
:1014A000EF92FF920F931F93CF93DF93CDB7DEB7E9
:1014B00069970FB6F894DEBF0FBECDBF0E943D0AFC
:1014C0000E941C0582E080930F038091EE0282301F
:1014D00009F06FC08091E70284608093E702CE013B
:1014E00001960E94D40325E030E0AE01455F5F4FD6
:1014F0006FEF70E086E00E94B705BE01655F7F4F29
:10150000CE0101960E9498032B813C814D815E8122
:101510006F81788589859A854359544F6F4F7F4FE6
:101520008F4F9F4F2B833C834D835E836F837887E0
:1015300089879A87BE016B5E7F4FCE0101960E941C
:10154000D5091D8A8E898E7F8E8B25E030E0AE0115
:101550004B5E5F4F6FEF70E08AE00E944B04BE016C
:101560006B5E7F4FCE0101960E9498032091D003BD
:101570003091D1034091D2035091D3036091D403B1
:101580007091D5038091D6039091D703AB80BC8036
:10159000CD80DE80EF80F88409851A850E94201AAC
:1015A0002D873E874F87588B698B7A8B8B8B9C8BD3
:1015B0000CC0813031F48091E80282608093E802AF
:1015C0008ECFCE010B960E94D4038D858093430568
:1015D0008E85809344058F85809345058889809307
:1015E00046058989809347058A89809348058B89B8
:1015F000809349058C8980934A0560E173E08DE210
:1016000095E00E94D50965E173E087E395E00E94CB
:10161000D5096AE173E081E495E00E94D5090E9452
:101620005F050E94F50969960FB6F894DEBF0FBEFC
:10163000CDBFDF91CF911F910F91FF90EF90DF9081
:10164000CF90BF90AF9008950E943D0A0E941C0564
:1016500010920F030E945F050C94F5090E942A0A5C
:10166000E7EEF2E084E0DF011D928A95E9F70E943F
:10167000850581E08093EE02089525E030E041EE9B
:1016800052E06FEF70E08FE00E94B7058091E102B9
:1016900090E0880F892F881F990B892B89F0809102
:1016A000FE029091FF02892B59F081E891E00E949F
:1016B000F406E091FE02F091FF0209950E94780580
:1016C0008091E20290E020910801222389F136E026
:1016D000959587953A95E1F78170C9F08091FC0264
:1016E0009091FD02892B99F083E991E00E94F40624
:1016F000E091FC02F091FD0209950E948505809120
:10170000FB02882321F00E942E0B0E94950545E0E4
:1017100050E06FEF70E081EE92E00E94501C25E0F7
:1017200030E041EE52E06FEF70E08FE00C944B043C
:1017300025E0959587952A95E1F7CECFFF920F93F7
:101740001F93CF93DF9300D000D0CDB7DEB7F82E34
:101750008E010F5F1F4F84E0F80111928A95E9F71F
:1017600024E030E0A80170E060E086E30E94B70565
:10177000F1101CC08CEC93E0909301018093000168
:1017800019828A818E7F8A8322E030E0A80170E08E
:1017900060E086E30E944B040F900F900F900F9033
:1017A000DF91CF911F910F91FF9008958AEC93E004
:1017B000909301018093000189818C7F81608983EE
:1017C000E3CF1F920F920FB60F9211242F933F93E6
:1017D0008F939F93AF93BF938091070390910803DA
:1017E000A0910903B0910A033091060323E0230F6F
:1017F0002D3758F50196A11DB11D20930603809346
:10180000070390930803A0930903B0930A03809100
:101810000B0390910C03A0910D03B0910E03019660
:10182000A11DB11D80930B0390930C03A0930D0396
:10183000B0930E03BF91AF919F918F913F912F91E4
:101840000F900FBE0F901F90189526E8230F029659
:10185000A11DB11DD2CF1F920F920FB60F9211246E
:101860002F933F934F935F936F937F938F939F93A8
:10187000AF93BF93EF93FF93E0910401F0910501C3
:101880000995FF91EF91BF91AF919F918F917F91BA
:101890006F915F914F913F912F910F900FBE0F90DD
:1018A0001F9018951F920F920FB60F9211242F932D
:1018B0003F934F935F936F937F938F939F93AF93D8
:1018C000BF93EF93FF93E0910201F091030109951B
:1018D000FF91EF91BF91AF919F918F917F916F9108
:1018E0005F914F913F912F910F900FBE0F901F90DE
:1018F00018951F920F920FB60F9211242F933F93BA
:101900004F935F936F937F938F939F93AF93BF9307
:10191000EF93FF938DE293E00E943602FF91EF91E7
:10192000BF91AF919F918F917F916F915F914F91F7
:101930003F912F910F900FBE0F901F9018951F92FF
:101940000F920FB60F9211242F938F939F93EF93C3
:10195000FF93E0913D03F0913E038081E0914303CA
:10196000F091440382FD1BC09081809146038F5FFC
:101970008F7320914703821741F0E0914603F0E016
:10198000E35DFC4F958F80934603FF91EF919F910C
:101990008F912F910F900FBE0F901F9018958081FF
:1019A000F4CFAF92BF92CF92DF92EF92FF920F935C
:1019B0001F93CF93DF931092300310922F0388EE82
:1019C00093E0A0E0B0E08093310390933203A093C2
:1019D0003303B093340384E691E090932E03809315
:1019E0002D0385EC90E090933A038093390384ECC7
:1019F00090E090933C0380933B0380EC90E09093C5
:101A00003E0380933D0381EC90E0909340038093EC
:101A10003F0382EC90E0909342038093410386EC75
:101A200090E09093440380934303109246031092F6
:101A3000470310924803109249038DE295E00E94FB
:101A4000D40387E395E00E94D40381E495E00E94EB
:101A5000D403C8EDD3E002EE13E08CE2A82E85E0BB
:101A6000B82EC12CD12C7601D394CE010E94D40380
:101A7000C8010E94D403CE0144960E94D403CE0133
:101A80004E960E94D403CE0188960E94D403CE01C4
:101A9000C2960E94D4030E943417A70196010E94A7
:101AA000B018F80162AF0E943417A70196010E9496
:101AB000B018F80163AFCB5ADF4F0B5A1F4FAC166B
:101AC000BD0699F610922C058EEC93E00E94D4038B
:101AD00080E58093CC0381E08093CD0391E59093E2
:101AE000CA038093CB03DF91CF911F910F91FF9099
:101AF000EF90DF90CF90BF90AF900895CF93DF939A
:101B0000CDB7DEB7CD5AD1090FB6F894DEBF0FBE00
:101B1000CDBF789484B5826084BD84B5816084BD76
:101B200085B5826085BD85B5816085BD80916E007B
:101B3000816080936E0010928100809181008260AC
:101B400080938100809181008160809381008091E9
:101B500080008160809380008091B10084608093D8
:101B6000B1008091B00081608093B00080917A00D4
:101B7000846080937A0080917A00826080937A00FA
:101B800080917A00816080937A0080917A008068E9
:101B900080937A001092C100E0913D03F0913E03E2
:101BA00082E08083E0913903F0913A031082E09162
:101BB0003B03F0913C0380E1808310924503E09168
:101BC0004103F091420386E08083E0913F03F0916E
:101BD0004003808180618083E0913F03F091400366
:101BE000808188608083E0913F03F0914003808191
:101BF00080688083E0913F03F091400380818F7D76
:101C000080838EED90E00E94020765E070E080E046
:101C100090E00E94760160E082E00E9420011FB700
:101C2000F8948091ED02811127C0EFE1F1E08491F9
:101C3000E3E3F1E09491E82FF0E0EE0FFF1FEF5F98
:101C4000FE4FA591B491EC91E92321F461E08AE083
:101C50000E94D40061E08AE00E9420018CB580617E
:101C60008CBD8CB580648CBD61E08DE00E9420014C
:101C700061E08BE00E9420018091ED028F5F8093F4
:101C8000ED021FBF9FB7F8948091EB0281608093B3
:101C9000EB028091EC02811103C081E08093EC02A1
:101CA0009FBF89E08093F0021092EE028DE39BE0EB
:101CB0009093030180930201809169008360809377
:101CC0006900E89A8AE08093EF0261E00E942001B7
:101CD00061E08AE00E94D40080E00E949E0B64E6EE
:101CE00070E080E090E00E9476011091F0029E0189
:101CF0002F5F3F4F79011F3F11F40C94BA1660E03B
:101D0000812F0E94200161E0812F0E94200160E06C
:101D1000812F0E94D40062E070E080E090E00E9499
:101D2000760160E0812F0E9420016AE070E080E08F
:101D300090E00E9476010E942A0A24E030E04FEFF2
:101D400050E060E070E081EF92E00E94EF0324E059
:101D500030E041EF52E06FEF70E083E00E944B040F
:101D600014E0E4E2F3E0DF01212F1D922A95E9F768
:101D700082E1809325030E94AE05E5EFF2E0DF01EA
:101D8000212F1D922A95E9F724E030E0AF016FEF93
:101D900070E08EE00E944B0481E00E949E0B65E0A3
:101DA00070E080E090E00E947601BE016F577F4FA7
:101DB00084E090E00E943406D7011D921A95E9F75D
:101DC000C757DF4F19821882C958D04024E030E04D
:101DD000A70170E060E086E30E94B70522E030E0F2
:101DE000AE0147575F4F66E070E08DE20E94B70595
:101DF00081E0898383E08A83C757DF4F1882C958FF
:101E0000D04080E8C657DF4F8883CA58D04022E0D0
:101E100030E0A70170E060E086E30E944B0422E01E
:101E200030E0AE0147575F4F66E070E08DE20E9400
:101E30004B0465E070E080E090E00E94760119823A
:101E40008A8182708A8322E030E0A70170E060E03E
:101E500086E30E944B0465E070E080E090E00E9421
:101E6000760180E00E949E0B65E070E080E090E0EB
:101E70000E947601B70188E090E00E943406B70125
:101E800089E090E00E94340684EA91E00E94F40622
:101E90000E942A0A24E030E041EF52E06FEF70E048
:101EA00083E00E94B70524E030E044E253E06FEFA6
:101EB00070E084E00E94B70524E030E040E253E0A7
:101EC0006FEF70E08FE10E94B70525E030E048E257
:101ED00053E06FEF70E088E00E94B70524E030E047
:101EE00045EF52E06FEF70E08EE00E94B7050E9470
:101EF0001C0582E08093F1021092F2028AE0809346
:101F0000F3021092F4020E94D30424E030E041EF87
:101F100052E06FEF70E083E00E944B040E94AE0538
:101F200024E030E040E253E06FEF70E08FE10E9488
:101F30004B0425E030E048E253E06FEF70E088E0CA
:101F40000E944B0424E030E045EF52E06FEF70E078
:101F50008EE00E944B0410910C0122E030E040E73B
:101F600058E860E070E0113041F0123059F422E09E
:101F700030E04BE958E860E070E0CE0189559F4FB2
:101F80000E94EF0324E030E047E059EA62E075E2A6
:101F9000CE018B569F4F0E94EF0322E030E045E3D5
:101FA00050E060E070E0CE018B559F4F0E94EF0340
:101FB00000910B0122E030E046E150E060E070E08B
:101FC000002381F022E030E046E050E060E070E085
:101FD000013041F0023059F422E030E041E050E0BD
:101FE00060E070E0CE018D559F4F0E94EF0322E02C
:101FF00030E047E850E060E070E0113041F012302E
:1020000059F422E030E04DE850E060E070E0CE01AD
:102010008F559F4F0E94EF03D0900901B6E0DB1669
:1020200031F0EAE0DE1619F0F3E0DF1275C022E0CD
:1020300030E044E650E060E070E0002309F47AC04C
:1020400080910A01883009F085C024E030E04DE23B
:1020500050E06AE171E3113009F48FC024E030E010
:102060004BE650E06BE371E3123009F486C031E0D7
:10207000D312B2C022E030E040E150E060E070E016
:10208000CE0183569F4F0E94EF03D0900D0184E054
:1020900021E030E0D81639F097E048ED50E060E0FC
:1020A00070E0D91204C04CEB50E060E070E0CE016B
:1020B00084559F4F0E94EF03A1E0DA1294C024E000
:1020C00030E040E45CE560E070E0CE0187579F4F70
:1020D0000E94EF0321E030E049EC50E060E070E066
:1020E000CE0185559F4F0E94EF0324E030E047E08A
:1020F00054E060E079E0CE018F579F4F0E94EF03DC
:1021000021E030E04EE150E060E070E0CE01865525
:102110009F4F0E94EF0316C121E0D21689F08FEF86
:10212000800F22E030E040E250E060E070E082307A
:1021300008F086CFCE0181569F4F0E94EF0380CFDB
:10214000023009F07DCF22E030E040E150E060E075
:1021500070E0F0CF8031B9F424E030E042E550E0A7
:102160006AE173E3113049F024E030E04EEB50E0D7
:102170006BE373E3123009F07ACFCE018F569F4F95
:102180000E94EF0374CF803291F424E030E04AE9FA
:1021900050E06AE175E3113081F324E030E04EE570
:1021A00051E06BE375E3123009F061CFE6CF803484
:1021B00009F05DCF24E030E04DE151E06AE177E3E2
:1021C0001130D9F2123009F052CF24E030E046E964
:1021D00052E06BE377E3D1CF22E030E048E250E019
:1021E00060E070E04DCFB2E0DB1228C024E030E0C8
:1021F00040EA5CE564E070E0CE0187579F4F0E94A3
:10220000EF0321E030E042EC50E060E070E0CE010E
:1022100085559F4F0E94EF0324E030E048E055E0F1
:1022200060E478E0CE018F579F4F0E94EF0321E0DA
:1022300030E046E250E060E070E068CFE3E0DE12BC
:1022400028C024E030E040EC5CE668E070E0CE01BD
:1022500087579F4F0E94EF0321E030E045EC50E0AC
:1022600060E070E0CE0185559F4F0E94EF0324E0AF
:1022700030E049E050E160E478E0CE018F579F4FB5
:102280000E94EF0321E030E046E550E060E070E0BE
:102290003DCFF4E0DF1212C024E030E040E85CE51E
:1022A00064E070E0CE0187579F4F0E94EF0321E06A
:1022B00030E045E950E060E070E0A9CF25E0D212BF
:1022C00028C024E030E040EE5FE36EE170E0CE0134
:1022D00087579F4F0E94EF0321E030E040EC50E031
:1022E00060E070E0CE0185559F4F0E94EF0324E02F
:1022F00030E04DE154E060E078E0CE018F579F4F31
:102300000E94EF0321E030E04EEB50E060E070E02F
:10231000FDCE37E0D31212C024E030E040EE5DE79E
:102320006EE170E0CE0187579F4F0E94EF0321E0DE
:1023300030E043E950E060E070E0D4CF8D2D8D7F38
:102340008530A9F221E030E04DE050E060E070E03F
:10235000CE0183559F4F0E94EF0322E030E047E01B
:1023600056E160E070E0113041F0123059F422E0A3
:1023700030E047E056E060E070E0CE0185569F4FC8
:102380000E94EF03809106019FEF980F923008F0B2
:10239000ACC222E030E043E35BE060E070E00023A9
:1023A00021F048E959E560E070E0CE0187569F4F83
:1023B0000E94EF038FEF8D0D823008F05EC3113065
:1023C00009F04AC38091F90224E030E045E755E581
:1023D00065E375E1811103C045E755E7BA01CE0118
:1023E00083579F4F0E94EF03B7018EE190E00E9458
:1023F000340649814111D1C321E030E040E750E08B
:1024000060E070E0CE0187559F4F0E94EF0322E00D
:1024100030E0AE0149555F4F64E070E083E20E9416
:102420004B0424E030E0AE014B565F4F6CE070E0AF
:1024300083E20E944B0422E030E0AE014B555F4F37
:1024400062E170E083E20E944B0422E030E0AE01E2
:102450004D555F4F62E070E087E20E944B0422E03E
:1024600030E0AE014F555F4F64E070E087E20E94BC
:102470004B0422E030E0AE0141565F4F66E070E071
:1024800087E20E944B0424E030E0AE014F565F4FDC
:1024900068E070E087E20E944B0422E030E0AE0189
:1024A00043565F4F66E270E087E20E944B0421E0F2
:1024B00030E0AE0143555F4F66E078E08EE20E9467
:1024C0004B0422E030E0AE0145565F4F66E078E114
:1024D0008EE20E944B0422E030E0AE0147565F4F8F
:1024E00064E078E28EE20E944B0424E030E0AE012A
:1024F00043575F4F6FEF70E08EE10E944B0421E085
:1025000030E0AE0144555F4F6BE070E088E20E941E
:102510004B0424E030E0AE0147575F4F6CE070E0C1
:1025200088E20E944B0421E030E0AE0145555F4F48
:102530006BE070E08AE20E944B0421E030E0AE01E3
:1025400046555F4F6BE070E08BE20E944B0424E045
:1025500030E0AE014F575F4F67E070E08BE20E94C2
:102560004B0421E030E0AE0147555F4F6EE070E074
:102570008BE20E944B042091D0033091D103409113
:10258000D2035091D3036091D4037091D50380910D
:10259000D6039091D703A0E00E943E1AC1F4809127
:1025A000FA02811114C01092D00380E48093D10309
:1025B0001092D2031092D3031092D4031092D50339
:1025C0001092D6031092D70381E08093FA02B701EC
:1025D0008EEC93E00E94D50922E030E0A7016FEF76
:1025E00070E088E10E944B0422E030E0A70164E043
:1025F00078E18EE20E944B0482EC90E00E94020798
:1026000024E030E0AE014F575F4F6FEF70E080E0A5
:102610000E94B705CF57DF4F8881C158D040982F0F
:102620009F701F929F9382958F701F928F93CE57AA
:10263000DF4F8881C258D0401F928F93CC57DF4F15
:102640008881C458D0408F93CD57DF4F8881C358BD
:10265000D0408F938BEB91E09F938F93FF92EF92FB
:102660000E94571C87EE91E00E94A306C7010E94BA
:10267000F40628E030E0AE014F575F4F6FEF70E097
:1026800081E00E94B705CF57DF4F8881C158D04005
:102690001F928F93CE57DF4F8881C258D0401F9230
:1026A0008F93CD57DF4F8881C358D0401F928F93AF
:1026B000CC57DF4F8881C458D0401F928F93CB579F
:1026C000DF4F8881C558D0401F928F93CA57DF4F84
:1026D0008881C658D0401F928F93C957DF4F888199
:1026E000C758D0401F928F93C857DF4F8881C85872
:1026F000D0401F928F9383EF91E09F938F93FF922F
:10270000EF920E94571C0FB6F894DEBF0FBECDBFEC
:102710008BE192E00E94A306C7010E94F40624E028
:1027200030E0AE014F575F4F6FEF70E083E00E94E3
:10273000B705CE57DF4F8881C258D0408F93CF570F
:10274000DF4F8881C158D0408F93CC57DF4F8881AD
:10275000C458D0408F93CD57DF4F8881C358D040A5
:102760008F9387E292E09F938F93FF92EF920E9464
:10277000571C86E492E00E94A306C7010E94F4065B
:1027800080910C010FB6F894DEBF0FBECDBF40E1C3
:10279000813021F040E4823009F040E0809109016D
:1027A000813009F402C2853009F402C2893009F48B
:1027B00001C28D3009F401C2823009F401C28630B1
:1027C00009F401C28A3009F401C2833009F001C260
:1027D00080E090E120910B01222309F4FCC121301B
:1027E00009F4FCC1223009F0FCC120E93AE1509122
:1027F0000D011F925F93509106011F925F939F936B
:102800008F931F924F933F932F9384E692E09F9371
:102810008F93FF92EF920E94571C83EB92E00E94ED
:10282000A306C7010E94F40688EA91E09093FF0294
:102830008093FE028CEA91E09093FD028093FC026B
:102840000E942E0B0E941C0581E08093FB02809168
:1028500027038062809327030E94AE050E9495059E
:102860000E94240B0E94C5020FB6F894DEBF0FBE73
:10287000CDBF80E0E82E80E0F82E93E0C92EBB2487
:10288000B394809105038111AEC18091040381113D
:10289000AAC12FB7F8948091070390910803A091E3
:1028A0000903B0910A032FBF409100035091010327
:1028B0006091020370910303841B950BA60BB70B69
:1028C0008B3F9105A105B10530F0B09207010E9440
:1028D000240B0E94C502E114F10499F20E94220225
:1028E000882379F20E940000CCCF833011F0883029
:1028F00071F422E030E04DE35AE060E070E0002344
:1029000009F453CD4AEE51E560E070E04ECD8430DD
:1029100071F422E030E041E558E060E070E000232F
:1029200009F443CD4EE852E460E070E03ECD8530DE
:1029300071F422E030E043EA58E060E070E0002308
:1029400009F433CD4EE155E460E070E02ECD8630E1
:1029500071F422E030E042EC55E060E070E00023EA
:1029600009F423CD44E15EE260E070E01ECD8730E3
:1029700071F422E030E040E050E160E070E00023DC
:1029800009F413CD40E050E860E070E00ECD8930EE
:1029900071F422E030E04EE155E060E070E00023A9
:1029A00009F403CD44EF58E260E070E0FECC8A30D9
:1029B00011F0813171F422E030E046E656E060E04B
:1029C00070E0002309F4F1CC42E353E360E070E0EF
:1029D000ECCC8B3071F422E030E04CE557E060E065
:1029E00070E0002309F4E1CC40EE5AE360E070E0CF
:1029F000DCCC8C3071F422E030E04EEA57E060E04D
:102A000070E0002309F4D1CC40E75DE360E070E0C2
:102A1000CCCC9EEE980F923070F422E030E048EB80
:102A200056E060E070E0002309F4BFCC42EC55E3CF
:102A300060E070E0BACC843109F0BCCC22E030E038
:102A400045EF58E060E070E0002309F4AECC4EEAB8
:102A500057E460E070E0A9CC123009F0C5CC809159
:102A6000F90224E030E047E657E467E277E08111BD
:102A7000B6CC47E657E6BA01B2CC83E0D81221C003
:102A8000113071F48091F90224E030E04FE65FE408
:102A90006FE27FE08111A3CC4FE65FE6BA019FCCE5
:102AA000123009F0A1CC8091F90224E030E04BE82B
:102AB0005BE66BE47BE2811192CC4BE85BE8BA0108
:102AC0008ECC94E0D91221C0113071F48091F902BA
:102AD00024E030E04FE55FE36FE17FE181117FCCDF
:102AE0004FE55FE5BA017BCC123009F07DCC8091D7
:102AF000F90224E030E04AE95AE76AE57AE3811115
:102B00006ECC4AE95AE9BA016ACCA5E0DA1221C0D2
:102B1000113071F48091F90224E030E048E458E289
:102B200068E07EE081115BCC48E458E4BA0157CC00
:102B3000123009F059CC8091F90224E030E045E8E8
:102B400055E665E475E281114ACC45E855E8BA01DD
:102B500046CCB7E0DB1248CC113071F48091F90219
:102B600024E030E042E952E762E572E3811137CCBC
:102B700042E952E9BA0133CC123009F035CC8091E8
:102B8000F90224E030E041ED51EB61E771E581119C
:102B900026CC41ED51EDBA0122CC4F71406650E098
:102BA00070E060E021E030E02DCC80E490E012CED7
:102BB00080E8FCCF80E091E00DCE80E092E00ACE8C
:102BC00080E094E007CE80E096E004CE80E098E0DC
:102BD00001CE80E0EBCF2EE630E009CE22E533E0F7
:102BE00006CE20E0F9CF8091050381111CC08091B1
:102BF0000403882309F46FCE1092040320E130E02F
:102C00004FE053E06FEF70E081E10E94B7058091E3
:102C10000F03813009F0AAC00E94FE07C09207018D
:102C20000E944C0A56CE1092050380910F03811129
:102C30004CC08DE295E00E947F0681EC92E00E94FC
:102C4000A306E0913605D0902F0500913005109134
:102C50003105B0913205F0913305A12C912CE0782B
:102C60002D2D302F412F5B2F6F2F70E080E09E2F96
:102C7000A0E00E943E1A8CF4AFEF0E94291A7FEF69
:102C80008FEF9FEFA1E00E94291AD22E032F142F5D
:102C9000B52FF62FA72E982EE92F2D2D302F412F4F
:102CA0005B2F6F2F7A2D892D9E2F0E94651B25E3A8
:102CB00038E443E857E30E94F21742E00E942207FB
:102CC00082E791E00E94A30692CF823009F08FCF75
:102CD00081E495E00E947F068EEC92E00E94A306BC
:102CE000E0913605D0902F05009130051091310507
:102CF000B0913205F0913305A12C912CE0782D2D67
:102D0000302F412F5B2F6F2F70E080E09E2FA0E0CF
:102D10000E943E1A8CF4AFEF0E94291A7FEF8FEFCA
:102D20009FEFA1E00E94291AD22E032F142FB52F56
:102D3000F62FA72E982EE92F2D2D302F412F5B2F08
:102D40006F2F7A2D892D9E2F0E94651B25E338E475
:102D500043E857E30E94F21742E00E94220782E70D
:102D600091E00E94A3060E94C50241CF833009F082
:102D700053CFABCD24E030E0A70170E060E086E304
:102D80000E94B70581E0898324E030E0A70170E06C
:102D900060E086E30E944B041C8224E030E0A7013F
:102DA00070E060E086E30E944B046AE070E080E03F
:102DB00090E00E947601198280EF8C8324E030E05D
:102DC000A70170E060E086E30E944B040C949B0E28
:102DD0008F929F92AF92BF92CF92DF92EF92FF922B
:102DE000CF93DF93EC01688179818A819B816115A2
:102DF00071058105910521F464E279ED8BE597E099
:102E00002DE133EF41E050E00E94B01849015A0132
:102E10009B01AC01A7EAB1E40E94CF186B017C01D1
:102E2000ACEEB4EFA50194010E94DD18C60ED71ECA
:102E3000E81EF91EF7FE06C081E0C81AD108E108B5
:102E400080E8F80AC882D982EA82FB82C701B6010B
:102E50009F77DF91CF91FF90EF90DF90CF90BF9061
:102E6000AF909F908F9008958F929F92AF92BF9254
:102E7000CF92DF92EF92FF9260910E0170910F015D
:102E800080911001909111016115710581059105E5
:102E900021F464E279ED8BE597E02DE133EF41E039
:102EA00050E00E94B01849015A019B01AC01A7EA09
:102EB000B1E40E94CF186B017C01ACEEB4EFA50128
:102EC00094010E94DD18C60ED71EE81EF91EF7FEFB
:102ED00006C081E0C81AD108E10880E8F80AC0926B
:102EE0000E01D0920F01E0921001F0921101C70182
:102EF000B6019F77FF90EF90DF90CF90BF90AF909B
:102F00009F908F90089560930E0170930F018093AE
:102F100010019093110108950E94CE1708F481E0EA
:102F20000895E89409C097FB3EF4909580957095BC
:102F300061957F4F8F4F9F4F9923A9F0F92F96E905
:102F4000BB279395F695879577956795B795F1117A
:102F5000F8CFFAF4BB0F11F460FF1BC06F5F7F4F17
:102F60008F4F9F4F16C0882311F096E911C0772329
:102F700021F09EE8872F762F05C0662371F096E832
:102F8000862F70E060E02AF09A95660F771F881F01
:102F9000DAF7880F9695879597F90895990F0008A5
:102FA000550FAA0BE0E8FEEF16161706E807F9071B
:102FB000C0F012161306E407F50798F0621B730BB6
:102FC000840B950B39F40A2661F0232B242B252B37
:102FD00021F408950A2609F4A140A6958FEF811DDA
:102FE000811D08950E9405180C9476180E94681897
:102FF00038F00E946F1820F0952311F00C945F18A0
:103000000C94651811240C94AA180E94871870F368
:10301000959FC1F3950F50E0551F629FF001729F7D
:10302000BB27F00DB11D639FAA27F00DB11DAA1F8C
:10303000649F6627B00DA11D661F829F2227B00DD9
:10304000A11D621F739FB00DA11D621F839FA00D64
:10305000611D221F749F3327A00D611D231F849FB4
:10306000600D211D822F762F6A2F11249F5750400B
:103070009AF0F1F088234AF0EE0FFF1FBB1F661F86
:10308000771F881F91505040A9F79E3F510580F04F
:103090000C945F180C94AA185F3FE4F3983ED4F3A5
:1030A000869577956795B795F795E7959F5FC1F7F3
:1030B000FE2B880F911D9695879597F9089597F99E
:1030C0009F6780E870E060E008959FEF80EC0895CE
:1030D00000240A94161617061806090608950024F7
:1030E0000A9412161306140605060895092E039471
:1030F000000C11F4882352F0BB0F40F4BF2B11F4E5
:1031000060FF04C06F5F7F4F8F4F9F4F089557FD43
:103110009058440F551F59F05F3F71F04795880F45
:1031200097FB991F61F09F3F79F0879508951216DC
:1031300013061406551FF2CF4695F1DF08C0161688
:1031400017061806991FF1CF869571056105089439
:103150000895E894BB2766277727CB0197F9089550
:10316000052E97FB1EF400940E94C71857FD07D048
:103170000E94191907FC03D04EF40C94C7185095FF
:103180004095309521953F4F4F4F5F4F0895909553
:103190008095709561957F4F8F4F9F4F08950E9446
:1031A0003B19A59F900DB49F900DA49F800D911D7C
:1031B00011240895B7FF0C94CF180E94CF18821BDA
:1031C000930B08952F923F924F925F926F927F924E
:1031D0008F929F92AF92BF92CF92DF92EF92FF9227
:1031E0000F931F93CF93DF93CDB7DEB7CA1BDB0BD3
:1031F0000FB6F894DEBF0FBECDBF09942A88398878
:1032000048885F846E847D848C849B84AA84B9847E
:10321000C884DF80EE80FD800C811B81AA81B9818A
:10322000CE0FD11D0FB6F894DEBF0FBECDBFED019E
:103230000895A1E21A2EAA1BBB1BFD010DC0AA1FF7
:10324000BB1FEE1FFF1FA217B307E407F50720F00F
:10325000A21BB30BE40BF50B661F771F881F991F8A
:103260001A9469F760957095809590959B01AC01D3
:10327000BD01CF010895A29FB001B39FC001A39FDC
:10328000700D811D1124911DB29F700D811D11249F
:10329000911D0895689401C0E894F92FF12B12F064
:1032A0000C947E19A0E0B0E0E8E5F9E10C94E81890
:1032B000092E059422F40E94DA19112392F4F0E801
:1032C0000F26FFEFE094F09400951095B094C09411
:1032D000D094A194BF0ACF0ADF0AEF0AFF0A0F0BAE
:1032E0001F0B0E94891907FC0E94DA19CDB7DEB7BF
:1032F000ECE00C940419689401C0E8948F929F92BA
:10330000CF93DF930E948919DF91CF919F908F9087
:10331000089588249924F401E401B0E49F93AA2736
:103320009A158B049C04ED05FE05CF05D007A10777
:1033300098F4AD2FDC2FCF2FFE2FE92D982C892E5E
:10334000982F872F762F652F542F432F322F222728
:10335000B85031F7BF9127C01B2EBF91BB27220F5A
:10336000331F441F551F661F771F881F991F881C16
:10337000991CEE1FFF1FCC1FDD1FAA1FBB1F8A1445
:103380009B04EC05FD05CE05DF05A007B10748F05D
:103390008A189B08EC09FD09CE09DF09A00BB10BC7
:1033A00021601A94E1F62EF49401AF01BE01CD0123
:1033B000000C089560957095809590953095409596
:1033C000509521953F4F4F4F5F4F6F4F7F4F8F4F1E
:1033D0009F4F0895002E083090F0982F872F762F5A
:1033E000652F542F432F322F22270850F4CF220F5E
:1033F000331F441F551F661F771F881F991F0A958B
:10340000B2F7002D089597FD1094002E083098F023
:103410000850232F342F452F562F672F782F892FB1
:10342000912DF4CF15949795879577956795579536
:103430004795379527950A95AAF71124002D0895E9
:103440002A0D3B1D4C1D5D1D6E1D7F1D801F911F94
:1034500008950024A7FD00942A0F301D401D501D23
:10346000601D701D801D901D08952A193B094C098F
:103470005D096E097F09800B910B08950024A7FD5B
:1034800000942A1730054005500560057005800539
:1034900090050895EE0FFF1F0590F491E02D09941B
:1034A0005058BB27AA270E94681A0C9476180E94CD
:1034B000681838F00E946F1820F039F49F3F19F413
:1034C00026F40C9465180EF4E095E7FB0C945F1855
:1034D000E92F0E94871858F3BA1762077307840709
:1034E000950720F079F4A6F50C94A9180EF4E09550
:1034F0000B2EBA2FA02D0B01B90190010C01CA01AE
:10350000A0011124FF27591B99F0593F50F4503E58
:1035100068F11A16F040A22F232F342F4427585F4A
:10352000F3CF469537952795A795F0405395C9F762
:103530007EF41F16BA0B620B730B840BBAF091501A
:10354000A1F0FF0FBB1F661F771F881FC2F70EC0B9
:10355000BA0F621F731F841F48F48795779567958C
:10356000B795F7959E3F08F0B0CF9395880F08F078
:103570009927EE0F9795879508950E94D11A0C947C
:1035800076180E946F1858F00E94681840F029F4CD
:103590005F3F29F00C945F1851110C94AA180C94F9
:1035A00065180E94871868F39923B1F3552391F3A6
:1035B000951B550BBB27AA2762177307840738F0A2
:1035C0009F5F5F4F220F331F441FAA1FA9F335D0FF
:1035D0000E2E3AF0E0E832D091505040E695001CB3
:1035E000CAF72BD0FE2F29D0660F771F881FBB1F6D
:1035F000261737074807AB07B0E809F0BB0B802D4B
:10360000BF01FF2793585F4F3AF09E3F510578F076
:103610000C945F180C94AA185F3FE4F3983ED4F31F
:10362000869577956795B795F7959F5FC9F7880F4A
:10363000911D9695879597F90895E1E0660F771F9C
:10364000881FBB1F621773078407BA0720F0621B2D
:10365000730B840BBA0BEE1F88F7E09508950E9458
:10366000361B6894B1110C94AA1808950E948F1803
:1036700088F09F5798F0B92F9927B751B0F0E1F033
:10368000660F771F881F991F1AF0BA95C9F714C0E3
:10369000B13091F00E94A918B1E008950C94A918D6
:1036A000672F782F8827B85F39F0B93FCCF386951C
:1036B00077956795B395D9F73EF490958095709579
:1036C00061957F4F8F4F9F4F089597FB16F40E948F
:1036D000A91B0C946C1BE894F92F96EBFF2381F047
:1036E000121613061406440B9395F6958795779555
:1036F000679557954040FF23B9F71BC09927089558
:10370000882351F49850D2F7872B762F652F542FAA
:10371000432F322F20E0B1F3121613061406440B88
:1037200088233AF09A95440F551F661F771F881F0C
:10373000CAF755234AF4440F551F11F460FF04C023
:103740006F5F7F4F8F4F9F4F880F9695879597F9A3
:103750000895909580957095609550954095309519
:1037600021953F4F4F4F5F4F6F4F7F4F8F4F9F4F71
:1037700008950E94CE1708F48FEF08950E94CE1B83
:1037800029ED3BE54EED5EE30C94F21716F00C9438
:103790001B1C0C94651868940C945F180E948F1879
:1037A000A8F39923C1F3AEF3DF93CF931F930F9345
:1037B000FF92C92FDD2788232AF02197660F771FF4
:1037C000881FDAF720E030E040E85FEB9FE38839BC
:1037D00020F0803E38F021968F770E94511AE8E65B
:1037E000F0E004C00E94511AE5E9F0E00E94291CB3
:1037F0008B01BE01EC01FB2E6F5771097595771F88
:10380000880B990B0E94931728E132E741E35FE3AD
:103810000E940518AF2D9801AE01FF900F911F91E6
:10382000CF91DF910E94681A0C9476180E94CE17EF
:10383000880B990B08959F3F31F0915020F48795A4
:1038400077956795B795880F911D9695879597F908
:103850000895DF93CF931F930F93FF92EF92DF9220
:103860007B018C01689406C0DA2EEF010E940518D6
:10387000FE01E894A5912591359145915591A6F3C6
:10388000EF010E94681AFE019701A801DA9469F716
:10389000DF90EF90FF900F911F91CF91DF910895EE
:1038A000DC0101C06D9341505040E0F70895AEE057
:1038B000B0E0EDE5FCE10C94F0180D891E8986E07E
:1038C0008C831A8309838FEF9FE79E838D83AE01DC
:1038D000475E5F4F6F89788DCE0101960E947A1CFA
:1038E0002F813885020F131FF80110822E96E4E015
:1038F0000C940C19ABE0B0E0E0E8FCE10C94E218A9
:103900007C013B018A01FC0117821682838181FFC1
:10391000C8C1CE0101965C01F7019381F30193FDCB
:10392000859193FF81913F01882309F453C185322A
:1039300039F493FD859193FF81913F01853229F4FC
:10394000B70190E00E946A1EE7CF912C212C312C08
:10395000FFE1F31538F08B3211F190F4803209F168
:10396000833229F137FC3CC020ED280F2A3050F576
:1039700036FE20C08AE0989E200D1124922E06C0AB
:103980008D3291F0803371F7689430F8F30193FD34
:10399000859193FF81913F018111DACF21C0689415
:1039A00031F8689432F8F2CF689433F8EFCF689426
:1039B00034F8ECCFEAE02E9E200D1124222E6894DC
:1039C00035F8E4CF8E3229F436FC04C1689436F819
:1039D000DDCF8C3619F4689437F8D8CF8836B1F239
:1039E000982F9F7D95549330E0F08336A1F1833773
:1039F000C1F1833509F063C02801F2E04F0E511C7C
:103A0000F801C080D180692D70E036FC02C06FEFF4
:103A10007FEFC6010E94541E4C01689437F8820162
:103A20000AC00C5F1F4FFFE3F98388248394912C15
:103A30006501E89437F833FE2DC0522C81149104AF
:103A400071F5552009F468CFB70180E290E00E943B
:103A50006A1E5A94F6CFF801808189830E5F1F4F4A
:103A6000E4CF2801F2E04F0E511CF801C080D18054
:103A7000692D70E036FC02C06FEF7FEFC6010E9437
:103A80005F1E4C018201D5CFB70180E290E00E9419
:103A90006A1E2A942814190409F0B0F7CECFF60153
:103AA00037FC859137FE81916F01B70190E00E944C
:103AB0006A1E51105A94F1E08F1A9108BFCF8436D4
:103AC00019F0893609F077C0F80137FE6BC06081C4
:103AD0007181828193810C5F1F4FF32DFF763F2E02
:103AE00097FF09C090958095709561957F4F8F4F96
:103AF0009F4F689437F82AE030E0A5010E949A1E93
:103B0000C82ECA188C2C432C36FE0CC0E89440F802
:103B1000C91440F434FE05C032FC03C0F32DFE7E10
:103B20004F2E892C44FE95C0FE01EC0DF11D8081C5
:103B3000803309F087C0242D297E422E842D887081
:103B4000582E43FC95C040FE8FC09C2C821418F464
:103B50002C0C922C981844FE91C0B70180E390E0A1
:103B60000E946A1E42FE09C088E790E041FE02C042
:103B700088E590E0B7010E946A1EC91408F48AC063
:103B8000CA94D12C9FEFC91AD90ACA0CDB1CF601C2
:103B900082916F01B70190E00E946A1EAC14BD04CF
:103BA000B1F74FCF60817181072E000C880B990B04
:103BB0000E5F1F4F92CFD32CE894D4F82AE030E068
:103BC000853739F1232D297FD22E8F3601F148F424
:103BD0008835A9F0F701868197812B96E2E10C9454
:103BE000FE18803749F08837A9F7D4FE02C06894E0
:103BF000D2F820E130E00DC06894D4F8F6CF34FE5E
:103C000003C0822F8660D82E20E132E002C028E077
:103C100030E0F801D7FE0FC060817181828193810D
:103C20000C5F1F4FA5010E949A1EC82ECA183D2C7A
:103C3000E89437F867CF6081718190E080E00E5F93
:103C40001F4FF0CF42FC02C0839478CF83948394BB
:103C500075CF842D867809F471CFF6CFB70180E255
:103C600090E00E946A1E83948214C0F3512C73CF9B
:103C7000522C5818821408F46ECFF8CF842D867811
:103C800009F47BCF8BE241FE80E247FC8DE2B70175
:103C900090E071CFB70180E390E00E946A1E9A9491
:103CA0006CCF8FEF9FEF99CFFC0105906150704072
:103CB0000110D8F7809590958E0F9F1F0895FC01F5
:103CC0006150704001900110D8F7809590958E0F4B
:103CD0009F1F08950F931F93CF93DF93182F092FE2
:103CE000EB018B8181FD09C01FEF0FEF812F902F1A
:103CF000DF91CF911F910F91089582FF14C02E8103
:103D00003F818C819D81281739073CF4E881F98136
:103D1000CF0101969983888310838E819F810196BC
:103D20009F838E83E3CFE885F985812F0995892BC1
:103D3000A1F3DACFFA01AA27283051F1203181F11D
:103D4000E8946F936E7F6E5F7F4F8F4F9F4FAF4FA3
:103D5000B1E03ED0B4E03CD0670F781F891F9A1FB6
:103D6000A11D680F791F8A1F911DA11D6A0F711D6A
:103D7000811D911DA11D20D009F468943F912AE076
:103D8000269F11243019305D3193DEF6CF0108955E
:103D9000462F4770405D4193B3E00FD0C9F7F6CF8F
:103DA000462F4F70405D4A3318F0495D31FD405257
:103DB000419302D0A9F7EACFB4E0A69597958795ED
:103DC00077956795BA95C9F70097610571050895CC
:103DD0009B01AC010A2E0694579547953795279578
:103DE000BA95C9F7620F731F841F951FA01D089510
:043DF000F894FFCF75
:103DF400CC03B001B0010401010508020105010072
:103E0400000000000000D9026E69645D5245331B56
:103E14000015232A313E474C5156C6BBB3A38F7FAE
:103E24006D543B1F00244154616A6E709385756321
:103E34004B321D00182D3F4C5762747A848E897A58
:103E44006958452F190015304F697F93A0A9B2C551
:103E5400000000005802B801E501A5021602F401B1
:103E640008020D0A006E616E00696E66006F766668
:103E7400007472616E736D697420697320646F6E6F
:103E84006520007265636965766520697320646FD7
:103E94006E65200044573130303020696E69746992
:103EA400616C697A6564202E2E2E002530325820EC
:103EB4002D206D6F64656C3A2025642C2076657224
:103EC40073696F6E3A2025642C2072657669736974
:103ED4006F6E3A2025640044657669636520494421
:103EE4003A2000253032583A253032583A253032BB
:103EF400583A253032583A253032583A253032581B
:103F04003A253032583A2530325800556E69717569
:103F1400652049443A200050414E3A202530325819
:103F24002C2053686F727420416464726573733A11
:103F34002025303258004E6574776F726B204944E7
:103F44002026204465766963652041646472657344
:103F5400733A20004461746120726174653A2025CB
:103F640075206B622F732C205052463A2025752001
:103F74004D487A2C20507265616D626C653A20253B
:103F8400752073796D626F6C732028636F6465208C
:103F9400232575292C204368616E6E656C3A2023B5
:103FA400257500446576696365206D6F64653A2004
:103FB4000053656E7420504F4C4C204020005365D4
:0C3FC4006E742052414E47452040200002
:00000001FF
