:100000000C948E010C94C10E0C94960E0C946B0EF5
:100010000C94400E0C94150E0C94EA0D0C94BF0D2C
:100020000C94940D0C94BF010C94BF010C94BF016F
:100030000C94BF010C94BF010C94BF010C94BF0140
:100040000C94BF010C94BF010C94BF010C94BF0130
:100050000C94BF010C94BF010C94BF010C944A0D89
:100060000C94BF010C94160F0C94EC0E0C94BF0171
:100070000C94BF010C94BF010C94BF010C94BF0100
:100080000C94BF010C94BF010C94BF010C94BF01F0
:100090000C94BF010C94BF010C94BF010C94BF01E0
:1000A0000C94BF010C94BF010C94BF010C94BF01D0
:1000B0000C94BF010C94BF010C94BF010C94BF01C0
:1000C0000C94BF010C94BF010C94BF010C94BF01B0
:1000D0000C94BF010C94BF010C94BF010C94BF01A0
:1000E0000C94BF0108000000BE922449123EABAA46
:1000F000AA2ABECDCCCC4C3E00000080BEABAAAA42
:10010000AA3E00000000BF000000803F0000000089
:1001100000084178D3BB4387D1133D190E3CC3BDC2
:100120004282AD2B3E68EC8276BED98FE1A93E4C6F
:1001300080EFFFBE01C4FF7F3F00000000000C9471
:1001400043030C94C10A0C94221F0C94D5020C9406
:1001500012030C94D9020C9439020C9435020C94BD
:100160007B030C942D040C94F1010C9414020C9458
:100170003D020C9447020C944C0F0C94F6010C9425
:1001800043020C941D020C940C020C9410020C946B
:100190002B020C94C8030C942F020C9417020C949D
:1001A00035030C9427020C94E5020C9408020C947D
:1001B00021030C9421020C94DD02436F6D6D697470
:1001C00074656420636F6E66696775726174696FC8
:1001D0006E202E2E2E0044573130303020696E694B
:1001E0007469616C697A6564202E2E2E00232323A6
:1001F000204457313030302D61726475696E6F2D37
:1002000072616E67696E672D616E63686F7220231D
:1002100023230000002100240027002A002D0030A5
:1002200000330001010000040107010A010000225F
:1002300000250028002B002E0031003400020100B0
:1002400000050108010B010505050507050808085B
:1002500008020202020A0A08080404040401010157
:10026000010101010103030303030303030407075F
:10027000070C0C0C0C0C0C0C0C02020202060606FD
:1002800006060606060B0B0B0B0B0B0B0B010210E5
:1002900020200808102040102040800201020108A0
:1002A0000402010102040810204080804020100850
:1002B00004020180040201804020100804020108A9
:1002C0000402010102040810204080010204081009
:1002D00020408000000A0B02090C0D0E08070304E1
:1002E000010000000000000000000000000000000D
:1002F00000000000000000000000000000000012EC
:1003000011100000000000000000000000000000CC
:10031000000000000000000000004C0F11241FBE70
:10032000CFEFD1E2DEBFCDBF00E00CBF14E0A0E014
:10033000B2E0E4E5FAE400E00BBF02C007900D92E2
:10034000A030B107D9F726E0A0E0B4E001C01D92CB
:10035000A33AB207E1F711E0CEE8D1E000E006C031
:1003600021970109802FFE010E94B41ECD38D107CC
:1003700080E00807A9F70E9409100C9428250C9426
:100380000000282F30E0F901ED52FD4F9491F90162
:10039000E357FD4F4491295B3D4FF90124912223FE
:1003A00009F435C0992311F191509231F8F4E92FF5
:1003B000F0E08827E152FE4F8F4F0C94B41E1002DC
:1003C0001402F10108020C02F60117021D022102BB
:1003D00027022B022F0235023902F6013D024302A9
:1003E0004702809180008F7780938000E22FF0E0B9
:1003F000EE0FFF1FE35DFD4FA591B4918FB7F89409
:10040000EC91611148C040954E234C938FBF0895E5
:10041000809180008F7DE8CF80918000877FE4CF3E
:1004200084B58F7784BDE2CF84B58F7DFBCF80917B
:10043000B0008F778093B000D9CF8091B0008F7DCE
:10044000F9CF809190008F7780939000CFCF8091EB
:1004500090008F7DF9CF80919000877FF5CF8091BC
:10046000A0008F778093A000C1CF8091A0008F7DE6
:10047000F9CF8091A000877FF5CF809120018F7701
:1004800080932001B3CF809120018F7DF9CF80919F
:100490002001877FF5CF4E2BB8CFCF93DF9390E02D
:1004A000FC01E357FD4F2491895B9D4FFC01849132
:1004B0008823D1F090E0880F991FFC01ED5EFD4F7D
:1004C000A591B491FC01E35DFD4FC591D4916111FB
:1004D0000EC09FB7F8948C91E22FE0958E238C93F9
:1004E0002881E223E8839FBFDF91CF9108958FB7E2
:1004F000F894EC91E22BEC938FBFF6CF3FB7F894D2
:1005000080913B0490913C04A0913D04B0913E0445
:1005100026B5A89B05C02F3F19F00196A11DB11D5E
:100520003FBFBA2FA92F982F8827BC01CD01620F9A
:10053000711D811D911D42E0660F771F881F991F55
:100540004A95D1F708958F929F92AF92BF92CF9222
:10055000DF92EF92FF924B015C010E947E026B01E1
:100560007C010E947E026C197D098E099F09683EFC
:10057000734081059105A8F321E0821A9108A10832
:10058000B10888EEC80E83E0D81EE11CF11C81146E
:100590009104A104B10429F7FF90EF90DF90CF9070
:1005A000BF90AF909F908F90089581E08093350425
:1005B000089581E08093340408950895DC01ED915D
:1005C000FC910190F081E02D1994AF92BF92CF92EF
:1005D000DF92EF92FF920F931F93CF93DF936C0103
:1005E0007B018B01040F151FEB015E01AE18BF08E4
:1005F000C017D10759F06991D601ED91FC91019096
:10060000F081E02DC6011995892B79F7C501DF919D
:10061000CF911F910F91FF90EF90DF90CF90BF90FF
:10062000AF900895FC01538D448D252F30E0842F29
:1006300090E0821B930B541710F0CF96089501970A
:100640000895FC01918D828D981761F0A28DAE0FF7
:10065000BF2FB11D5D968C91928D9F5F9F73928F7E
:1006600090E008958FEF9FEF0895FC01918D828DAA
:10067000981731F0828DE80FF11D858D90E0089577
:100680008FEF9FEF0895FC01918D228D892F90E0CF
:10069000805C9F4F821B91098F73992708958DE588
:1006A00094E00E94430321E0892B09F420E0822F8B
:1006B0000895FC01A48DA80FB92FB11DA35ABF4FF7
:1006C0002C91848D90E001968F739927848FA68951
:1006D000B7892C93A089B1898C91837080648C93A5
:1006E000938D848D981306C00288F389E02D808154
:1006F0008F7D80830895EF92FF920F931F93CF9386
:10070000DF93EC0181E0888F9B8D8C8D98131AC04C
:10071000E889F989808185FF15C09FB7F894EE8933
:10072000FF896083E889F989808183708064808390
:100730009FBF81E090E0DF91CF911F910F91FF90DB
:10074000EF900895F62E0B8D10E00F5F1F4F0F7383
:100750001127E02E8C8D8E110CC00FB607FCFACF3E
:10076000E889F989808185FFF5CFCE010E94590380
:10077000F1CFEB8DEC0FFD2FF11DE35AFF4FF0820F
:100780009FB7F8940B8FEA89FB8980818062CFCF75
:10079000CF93DF93EC01888D8823B9F0AA89BB89B8
:1007A000E889F9898C9185FD03C0808186FD0DC0A3
:1007B0000FB607FCF7CF8C9185FFF2CF808185FFC4
:1007C000EDCFCE010E945903E9CFDF91CF9108957B
:1007D00080E090E0892B29F00E944F0381110E9454
:1007E000000080E090E0892B49F080E090E0892BC8
:1007F00029F00E94000081110E94000080E090E03A
:10080000892B49F080E090E0892B29F00E940000BC
:1008100081110E94000080E090E0892B49F080E087
:1008200090E0892B29F00E94000081110C940000B7
:1008300008952FB7F8948091370490913804A091CF
:100840003904B0913A042FBF80933004909331045F
:10085000A0933204B093330408952F923F924F92A5
:100860005F926F927F928F929F92AF92BF92CF9240
:10087000DF92EF92FF920F931F93CF93DF93CDB749
:10088000DEB76B970FB6F894DEBF0FBECDBFFC018D
:100890007A8F698F928043805480658076808780CC
:1008A00020843184292D342D452D562D672D782D0A
:1008B000C101A0E00E943F2001F560E3898D9A8D7F
:1008C0000E94DE0281E090E06B960FB6F894DEBFE6
:1008D0000FBECDBFDF91CF911F910F91FF90EF9091
:1008E000DF90CF90BF90AF909F908F907F906F9050
:1008F0005F904F903F902F900895C101A0E00E941B
:100900003F200CF062C06DE2898D9A8D0E94DE025C
:10091000292D342D452D562D672D782DC1010E948E
:10092000A41F922E432E542E652E762E872E1C0148
:1009300081E08B8F188EFE013196FF8BEE8B9AE053
:10094000A92EB12CC12CD12CE12CF12C00E010E00F
:10095000292D342D452D562D672D782DC1010E944E
:10096000161FE1E0F0E0EC0FFD1FA88DEA0FF11D6E
:10097000A6EF2A9F900C11249082922E432E542E83
:10098000652E762E872E1C01E88DEF5FE88FA0E0A4
:100990000E943F20A1F67E2EFB8D7F0E882483943B
:1009A000912C8C0E9D1E8E0E911CEE89FF89E815F0
:1009B000F90579F0F40162914F016A3040F4605D0D
:1009C000898D9A8D0E94DE02F0CF1B8EB3CF695CB9
:1009D000F7CF872D90E078CFDF92EF92FF920F93C1
:1009E0001F93CF93DF93FC01D280E380F4800581D5
:1009F0001681D781C085B1852D2D3E2D4F2D502FCD
:100A0000612F7D2F8C2F9B2FA0E00E943F205CF454
:100A10007F5F8F4F9F4F2283338344835583668349
:100A2000778380879187CF01DF91CF911F910F91BD
:100A3000FF90EF90DF9008950F931F93CF93DF9374
:100A4000FC0112821382148215821682178210868C
:100A50001186EB01B0E0A0E0299130E040E050E0E9
:100A600060E070E080E090E00A2F0E94EB1F1281AE
:100A7000212B1381312B1481412B1581512B168190
:100A8000612B1781712B1085812B1185912B22836E
:100A90003383448355836683778380879187189651
:100AA000A832B105C9F6DF91CF911F910F9108953A
:100AB000FC01DB0189E692E091838083128213823C
:100AC00014821582168217821086118612967C91E6
:100AD000129713966C91139714965C911497159630
:100AE0004C91159716963C91169717962C9117973F
:100AF00018969C91189719968C91728363835483EE
:100B00004583368327839087818708956F927F92EC
:100B10008F929F92AF92BF92CF92DF92EF92FF920D
:100B20000F931F93CF93DF9300D000D000D01F927C
:100B3000CDB7DEB73C014A01CE0101960E945805AF
:100B40002B813C814D815E816F81788589859A8575
:100B5000F401A280B380C480D580E680F780008550
:100B600011850E9436202B833C834D835E836F83E7
:100B7000788789879A87BE016F5F7F4FC3010E9484
:100B80005805C3012A960FB6F894DEBF0FBECDBF3D
:100B9000DF91CF911F910F91FF90EF90DF90CF9059
:100BA000BF90AF909F908F907F906F9008958F929D
:100BB0009F92AF92BF92CF92DF92EF92FF920F93EC
:100BC0001F93CF93DF9300D000D000D01F92CDB7FA
:100BD000DEB74C018A01CE0101960E945805F8014A
:100BE0002281338144815581668177818085918519
:100BF000AB80BC80CD80DE80EF80F88409851A85CB
:100C00000E9421202B833C834D835E836F837887F2
:100C100089879A87BE016F5F7F4FC4010E94580584
:100C2000C4012A960FB6F894DEBF0FBECDBFDF9188
:100C3000CF911F910F91FF90EF90DF90CF90BF90D9
:100C4000AF909F908F900895FC0189E692E0918388
:100C50008083128213821482158216821782108674
:100C6000118608959FB7F89420910C0480910A048E
:100C7000213019F48DBB9FBF08958FBF0895CF9287
:100C8000DF92EF92FF92280F391FF0E0E0E06A0157
:100C90007B010E2E04C0F594E794D794C7940A9470
:100CA000D2F7DC01CD92CD013896A217B30779F7C0
:100CB000FF90EF90DF90CF900895282F30E0E0E58F
:100CC000F4E092819F73A90166E0440F551F6A9575
:100CD000E1F7942B9283A901559547955595479532
:100CE000A3E0220F331FAA95E1F7242B23838093DF
:100CF000120208958EBD00000DB407FEFDCF8EB523
:100D0000089520910C04222381F03FB7F89420919C
:100D10000C04213069F42DB320930A044DB32091C3
:100D20000B04209524232DBB3FBF8CBD9DBD089592
:100D300030930A04FACF7F928F929F92AF92BF9224
:100D4000CF92DF92EF92FF920F931F93CF93DF9397
:100D500000D0CDB7DEB7D42EC52E79016F3F710517
:100D600049F58068898301E0E0910002F091010279
:100D7000808191810E94810670900E0460E0872D31
:100D80000E94C101CE0101964C015C0110E0C50139
:100D9000881999098017910700F10D2D1C2DE00E7F
:100DA000F11E0E151F05F9F0F80181918F010E94C7
:100DB0007A06F7CF806C89836038710518F46A83EE
:100DC00002E0D2CF862F80688A83660F672F661F66
:100DD000770B71956B8303E0C7CFF50181915F01BC
:100DE0000E947A06D4CF8FE090E00197F1F761E09E
:100DF000872D0E94C10180910C04882391F00F90EF
:100E00000F900F90DF91CF911F910F91FF90EF9076
:100E1000DF90CF90BF90AF909F908F907F900C9479
:100E200032060F900F900F90DF91CF911F910F918D
:100E3000FF90EF90DF90CF90BF90AF909F908F90FA
:100E40007F900895DF92EF92FF920F931F93CF93BD
:100E5000DF931F92CDB7DEB708E514E0F80181817A
:100E600083788183E4E5F4E082818064828380E595
:100E7000E82E84E0F82EF70182818F7C82608283E5
:100E800090E4D92ED98221E030E0AE014F5F5F4F70
:100E900070E060E081E20E949B0610921802F80167
:100EA0008281F7019281937F9460928391E0909385
:100EB0001702807C8962F8018283D09216028AE050
:100EC000809315020F90DF91CF911F910F91FF90AA
:100ED000EF90DF9008958091230481113EC010921D
:100EE0004F04809156048C7F109218048460809384
:100EF000560481E080931402809154048E7F809385
:100F000054049091140480911504209116042560D6
:100F1000209316048B7F806F8093150498689093BC
:100F20001404809157048062809357040E94220722
:100F300085E58093500485E0809313028091170229
:100F4000813031F484E00E945D0684E00C945D06FB
:100F50008AE00E945D068AE0F9CF0895CF938091E0
:100F60001402C2E1811101C0C0E12C2F30E04FE337
:100F700054E06FEF70E089E00E949B06C093580434
:100F800080915904807E80935904CF910895E5E0C3
:100F9000F4E08081806F808325E030E0AF016FEF67
:100FA00070E08FE00C949B06E5E0F4E08281918193
:100FB000946F91838560828325E030E0AF016FEF0D
:100FC00070E08FE00C949B0680911F0490911402B6
:100FD000911111C0816080931F0480912004816071
:100FE0008093200424E030E04FE154E06FEF70E0A4
:100FF0008DE00C949B068E7FEECF24E030E044E53C
:1010000054E06FEF70E084E00C949B067F928F9227
:101010009F92AF92BF92CF92DF92EF92FF920F9387
:101020001F93CF93DF9300D0CDB7DEB74A0179018C
:101030006F3F710509F5898301E0E0910002F091AD
:101040000102808191810E94810670900E0460E00F
:10105000872D0E94C101CE0101965C016C0110E058
:10106000C6018A199B098017910788F4F6018191BE
:101070006F010E947A06F4CF806489836A8302E05C
:1010800060387105D0F281E08B8303E0D6CF840114
:10109000E80CF91C80E00E947A06F80181938F0128
:1010A000EE15FF05B9F78FE090E00197F1F761E0E9
:1010B000872D0E94C10180910C04882391F00F902C
:1010C0000F900F90DF91CF911F910F91FF90EF90B4
:1010D000DF90CF90BF90AF909F908F907F900C94B7
:1010E00032060F900F900F90DF91CF911F910F91CB
:1010F000FF90EF90DF90CF90BF90AF909F908F9038
:101100007F9008950F931F93CF93DF9300D01F928A
:101110001F92CDB7DEB78B0189831A8222E030E0BF
:10112000AE014F5F5F4F64E070E08DE20E949B066E
:1011300083E08B8321E030E0AE014D5F5F4F66E0DE
:1011400070E08DE20E949B0681E08C8321E030E01C
:10115000AE014C5F5F4F66E070E08DE20E949B063F
:1011600024E030E0A8016AE070E08DE20E94060809
:101170001D8221E030E0AE014B5F5F4F66E070E022
:101180008DE20E949B060F900F900F900F900F9092
:10119000DF91CF911F910F910895FC0101900020E4
:1011A000E9F73197AF01481B590BBC018DE594E07D
:1011B0000C94E5028F929F92AF92BF920F931F9370
:1011C000CF93DF93CDB7DEB7A1970FB6F894DEBF0C
:1011D0000FBECDBF19A2423008F44AE08E010F5D68
:1011E0001F4F842E912CB12CA12CA50194010E949B
:1011F000831EE62FB901CA01EA30F4F4E05DD8019C
:10120000EE938D01232B242B252B79F790E080E0A2
:10121000109719F0CD010E94CD08A1960FB6F89451
:10122000DEBF0FBECDBFDF91CF911F910F91BF9059
:10123000AF909F908F900895E95CE1CFCF93DF93BB
:10124000BC01990F880B990B4AE00E94DA08EC0167
:101250008DE792E00E94CD088C0F9D1FDF91CF910A
:101260000895CF93DF930E94CD08EC018DE792E0C3
:101270000E94CD088C0F9D1FDF91CF9108950F9391
:101280001F93CF93DF938C01D0E0C0E0F801EC0F07
:10129000FD1F6491662341F08DE594E00E947B037D
:1012A000892B11F02196F2CF8DE792E00E94CD08B4
:1012B0008C0F9D1FDF91CF911F910F9108954F9239
:1012C0005F926F927F928F929F92AF92BF92CF92D6
:1012D000DF92EF92FF920F931F93CF936B017C01EC
:1012E000742EAC019B010E941122882399F080E8A2
:1012F00092E0CF911F910F91FF90EF90DF90CF90F0
:10130000BF90AF909F908F907F906F905F904F9025
:101310000C94CD0846015701E894B7F82FEF3FEF42
:101320004FE75FE7C501B4010E94112281110DC092
:101330002FEF3FEF4FE75FE7C501B4010E942D1D7E
:1013400018161CF484E892E0D4CF2FEF3FEF4FE75C
:101350005FE4C701B6010E94B42118161CF488E8A6
:1013600092E0C7CF2FEF3FEF4FE75FECC701B60129
:101370000E942D1D87FDF3CF20E030E0A901C701B9
:10138000B6010E942D1D10E000E087FF0AC06DE24B
:101390008DE594E00E94DE028C01F7FAF094F7F8F4
:1013A000F094C0E060E070E080E09FE37C1641F0E4
:1013B00020E030E040E251E40E94B820CF5FF6CF59
:1013C000A70196010E944C202B013C010E94312173
:1013D0004B015C014AE00E94DA087C01E00EF11E3C
:1013E000CC23C1F1C501B4010E94321D9B01AC01A7
:1013F000C301B2010E944B204B015C016EE28DE5FE
:1014000094E00E94DE02E80EF91EC15018F120E0BF
:1014100030E040E251E4C501B4010E94931D2B016C
:101420003C010E9431214B01B12CA12C4AE0C501A5
:10143000B4010E94DA08E80EF91EC501B4010E9449
:10144000321D9B01AC01C301B2010E944B204B0134
:101450005C01DBCFC701CF911F910F91FF90EF90FF
:10146000DF90CF90BF90AF909F908F907F906F90C4
:101470005F904F9008950F93CF93DF93FC0185E029
:10148000DB011D928A95E9F7DB01D0E0C0E0228103
:1014900033814481558166817781808591850C2FC8
:1014A0000E9404202D932896C832D10581F7DF9140
:1014B000CF910F91089525E030E048E554E06FEFBB
:1014C00070E088E00E949B069091140280911F04B6
:1014D000911121C0816080931F0480911F0482605C
:1014E00080931F0424E030E04FE154E06FEF70E0A0
:1014F0008DE00E949B0680911E04882371F0EFE12D
:10150000F4E084E0DF011D928A95E9F781E08093A1
:1015100023040C94E4078E7FDECF109223040895F9
:10152000EFE1F4E084E0DF011D928A95E9F780E4C1
:1015300080831092230424E030E0AF016FEF70E06D
:101540008DE00C949B060E94900AEFE1F4E084E0A9
:10155000DF011D928A95E9F70E94C70782E0809318
:10156000230408950E94900AEFE1F4E084E0DF0193
:101570001D928A95E9F70E94D40781E080932304A5
:10158000089525E030E045E054E06FEF70E08FE033
:101590000E9406088091050490E0880F892F881F1B
:1015A000990B892B49F0E0911C04F0911D043097B0
:1015B00019F019950E94C7078091060490E02091C8
:1015C0001402222349F136E0959587953A95E1F783
:1015D000817089F0E0911A04F0911B04309759F062
:1015E00019950E94D40780911E04882321F00E943F
:1015F000B20A0E94E40745E050E06FEF70E085E03A
:1016000094E00E944B2225E030E045E054E06FEF8B
:1016100070E08FE00C949B0625E0959587952A95C0
:10162000E1F7D6CFFF920F931F93CF93DF9300D0B4
:101630001F92CDB7DEB7F82E8E010F5F1F4F84E0EB
:10164000F80111928A95E9F724E030E0A80170E0F2
:1016500060E086E30E940608F1101CC08CEF94E065
:10166000909301028093000219828A818E7F8A837F
:1016700022E030E0A80170E060E086E30E949B0673
:101680000F900F900F900F90DF91CF911F910F91BE
:10169000FF9008958AEF94E09093010280930002F6
:1016A00089818C7F81608983E3CF2F923F924F9213
:1016B0005F926F927F928F929F92AF92BF92CF92E2
:1016C000DF92EF92FF92CF93DF9300D000D000D053
:1016D0001F92CDB7DEB722E030E0AE014B5F5F4F27
:1016E00066E070E082E10E94060824E030E0AE018E
:1016F0004F5F5F4F6FEF70E080E10E9406086D80E2
:101700007E806B8170E044E0769567954A95E1F7BD
:101710008C8120E1829FC0011124682B792B80915C
:1017200017022DE6222E26E5322E25E1422E20E458
:10173000522E3DE3C32E3AE8D32E33EEE32E32E4AD
:10174000F32E813081F08DE6282E86E5382E85E94E
:10175000482E8FE3582E91EEC92E9AE7D92E93EF9B
:10176000E92E92E4F92E90E080E00E94321D4B01B8
:101770005C01B30190E080E00E94321D20E030E087
:1017800040E058E40E94931D6F83788789879A8789
:10179000A5019401C501B4010E94931D9B01AC01F8
:1017A0006F81788589859A850E94B8200E94B92129
:1017B00020E030E040E251E40E94931DA701960131
:1017C0000E944B206B017C0120E030E040EB52ECAA
:1017D0000E942D1D1816A4F420E030E040EB52E4E6
:1017E000C701B6010E944C20A20191010E94931DE5
:1017F0009B01AC01C701B6010E944C206B017C012A
:10180000C701B6012A960FB6F894DEBF0FBECDBF52
:10181000DF91CF91FF90EF90DF90CF90BF90AF908E
:101820009F908F907F906F905F904F903F902F9000
:1018300008954F925F926F927F928F929F92AF9294
:10184000BF92CF92DF92EF92FF920F931F93CF93AD
:10185000DF93CDB7DEB72F970FB6F894DEBF0FBE7C
:10186000CDBF4C0125E030E0AE01455F5F4F70E039
:1018700060E085E10E940608BE01655F7F4FC401FC
:101880000E941C050E94550B20E030E044E752E422
:101890000E944C20905820E030E040E05FE30E943E
:1018A000931D2B013C010E942A21DB011A161B0605
:1018B0000CF0A1C0AB014F5F5F4F413151050CF0FF
:1018C0009FC03091130220911702343019F0373045
:1018D00009F0AEC0213009F098C0FA01ED5AFD4F71
:1018E000008110E0473051051CF411950195110954
:1018F000000F111FFD01ED5AFD4FE080F12CA730C4
:10190000B1051CF4F194E194F108EE0CFF1CBD014B
:10191000BB0F880B990B0E94341D9B01AC01C301C6
:10192000B2010E944B202B013C01B8016E197F09C6
:10193000072E000C880B990B0E94341D9B01AC01F3
:10194000C301B2010E94931D2B013C01B701FF0CA2
:10195000880B990B0E94341D9B01AC01C301B2019D
:101960000E944C202B013C01CE0101960E942406CE
:1019700023EB33E245E553E4C301B2010E94931D1A
:101980002FE632E143E85AE30E94931D0E942A2188
:101990005B011B2D110F110BF40122813381448156
:1019A00055816681778180859185C12ED12EE12E6A
:1019B000F12E012F0E9436202283338344835583E6
:1019C00066837783808791872F960FB6F894DEBF62
:1019D0000FBECDBFDF91CF911F910F91FF90EF9080
:1019E000DF90CF90BF90AF909F908F907F906F903F
:1019F0005F904F90089550E040E0B0E0A0E061CFEC
:101A000041E150E0A1E1B0E05CCF2230E9F6FA011B
:101A1000EF5BFD4F008110E0473051051CF411953C
:101A200001951109000F111FFD01EF5BFD4F65CFFF
:101A30002130C1F4FA01E15DFD4F008110E04A3030
:101A400051051CF4119501951109FD01E15DFD4F52
:101A5000E080F12CAA30B1050CF059CFF194E1945B
:101A6000F10855CF223009F0AFCFFA01E35EFD4F08
:101A7000008110E0483051051CF4119501951109C1
:101A8000FD01E35EFD4FE080F12CA830B1050CF0C4
:101A90003ECFE4CF1F920F920FB60F9211242F93D7
:101AA0003F938F939F93AF93BF938091370490910F
:101AB0003804A0913904B0913A043091360423E0FF
:101AC000230F2D3758F50196A11DB11D2093360423
:101AD0008093370490933804A0933904B0933A0468
:101AE00080913B0490913C04A0913D04B0913E0450
:101AF0000196A11DB11D80933B0490933C04A093DB
:101B00003D04B0933E04BF91AF919F918F913F915F
:101B10002F910F900FBE0F901F90189526E8230F5E
:101B20000296A11DB11DD2CF1F920F920FB60F9238
:101B300011240BB60F922F933F934F935F936F93A4
:101B40007F938F939F93AF93BF93EF93FF93E09116
:101B50001002F09111021995FF91EF91BF91AF9191
:101B60009F918F917F916F915F914F913F912F91B5
:101B70000F900BBE0F900FBE0F901F9018951F92E5
:101B80000F920FB60F9211240BB60F922F933F9323
:101B90004F935F936F937F938F939F93AF93BF9375
:101BA000EF93FF93E0910E02F0910F021995FF91D0
:101BB000EF91BF91AF919F918F917F916F915F91C5
:101BC0004F913F912F910F900BBE0F900FBE0F9032
:101BD0001F9018951F920F920FB60F9211240BB6FB
:101BE0000F922F933F934F935F936F937F938F93B6
:101BF0009F93AF93BF93EF93FF93E0910402F09113
:101C000005021995FF91EF91BF91AF919F918F912F
:101C10007F916F915F914F913F912F910F900BBEEC
:101C20000F900FBE0F901F9018951F920F920FB636
:101C30000F9211240BB60F922F933F934F935F9304
:101C40006F937F938F939F93AF93BF93EF93FF9384
:101C5000E0910202F09103021995FF91EF91BF917B
:101C6000AF919F918F917F916F915F914F913F9134
:101C70002F910F900BBE0F900FBE0F901F901895D5
:101C80001F920F920FB60F9211240BB60F922F9343
:101C90003F934F935F936F937F938F939F93AF93F4
:101CA000BF93EF93FF93E0910C02F0910D02199511
:101CB000FF91EF91BF91AF919F918F917F916F9124
:101CC0005F914F913F912F910F900BBE0F900FBEE0
:101CD0000F901F9018951F920F920FB60F9211241C
:101CE0000BB60F922F933F934F935F936F937F9316
:101CF0008F939F93AF93BF93EF93FF93E0910A026B
:101D0000F0910B021995FF91EF91BF91AF919F91C7
:101D10008F917F916F915F914F913F912F910F9094
:101D20000BBE0F900FBE0F901F9018951F920F9231
:101D30000FB60F9211240BB60F922F933F934F9330
:101D40005F936F937F938F939F93AF93BF93EF9323
:101D5000FF93E0910802F09109021995FF91EF912C
:101D6000BF91AF919F918F917F916F915F914F91B3
:101D70003F912F910F900BBE0F900FBE0F901F90B1
:101D800018951F920F920FB60F9211240BB60F9257
:101D90002F933F934F935F936F937F938F939F9373
:101DA000AF93BF93EF93FF93E0910602F091070288
:101DB0001995FF91EF91BF91AF919F918F917F9175
:101DC0006F915F914F913F912F910F900BBE0F90AC
:101DD0000FBE0F901F9018951F920F920FB60F9283
:101DE00011240BB60F922F933F934F935F936F93F2
:101DF0007F938F939F93AF93BF93EF93FF938DE563
:101E000094E00E945903FF91EF91BF91AF919F9190
:101E10008F917F916F915F914F913F912F910F9093
:101E20000BBE0F900FBE0F901F9018951F920F9230
:101E30000FB60F9211240BB60F922F938F939F938F
:101E4000EF93FF93E0916D04F0916E048081E09137
:101E50007304F091740482FD1DC09081809176041A
:101E60008F5F8F7320917704821741F0E0917604A1
:101E7000F0E0E35AFB4F958F80937604FF91EF914A
:101E80009F918F912F910F900BBE0F900FBE0F90CF
:101E90001F9018958081F2CFAF92BF92CF92DF92C0
:101EA000EF92FF920F931F93CF93DF9310926004F2
:101EB00010925F0488EE93E0A0E0B0E080936104AC
:101EC00090936204A0936304B09364048FE692E05D
:101ED00090935E0480935D0485EC90E090936A0497
:101EE0008093690484EC90E090936C0480936B047D
:101EF00080EC90E090936E0480936D0481EC90E010
:101F00009093700480936F0482EC90E0909372043D
:101F10008093710486EC90E0909374048093730432
:101F2000109276041092770410927804109279043B
:101F30008DE596E00E94240687E696E00E9424063E
:101F400081E796E00E9424068BE796E00E94240633
:101F500085E896E00E9424068FE896E00E94240619
:101F600089E996E00E942406C8E0D5E002E115E088
:101F70008CE5A82E86E0B82EC12CD12C7601D39406
:101F8000CE010E942406C8010E942406CE01449678
:101F90000E942406CE014E960E942406CE01889609
:101FA0000E942406CE01C2960E9424060E94D51CDF
:101FB000A70196010E94511EF80162AF0E94D51C34
:101FC000A70196010E94511EF80163AFCB5ADF4F63
:101FD0000B5A1F4FAC16BD0699F610925C068EEF99
:101FE00094E00E94240680E58093FC0481E08093C5
:101FF000FD0491E59093FA048093FB04DF91CF9167
:102000001F910F91FF90EF90DF90CF90BF90AF9016
:102010000895CF93DF93CDB7DEB7CB5FD1090FB66D
:10202000F894DEBF0FBECDBF789484B5826084BDC6
:1020300084B5816084BD85B5826085BD85B58160CC
:1020400085BD80916E00816080936E00109281004A
:102050008091810082608093810080918100816005
:1020600080938100809180008160809380008091C6
:10207000B10084608093B1008091B0008160809352
:10208000B0008091910082608093910080919100D6
:102090008160809391008091900081608093900096
:1020A0008091A10082608093A1008091A100816055
:1020B0008093A1008091A00081608093A000809116
:1020C00021018260809321018091210181608093B0
:1020D00021018091200181608093200180917A000C
:1020E000846080937A0080917A00826080937A0085
:1020F00080917A00816080937A0080917A00806874
:1021000080937A001092C100E0916D04F0916E040A
:1021100082E08083E0916904F0916A041082E0918A
:102120006B04F0916C0480E1808310927504E0915F
:102130007104F091720486E08083E0916F04F09165
:102140007004808180618083E0916F04F09170045D
:10215000808188608083E0916F04F09170048081B9
:1021600080688083E0916F04F091700480818F7D9E
:10217000808368EE73E080E090E00E94A3028DEE21
:1021800091E00E943F0965E070E080E090E00E94ED
:10219000A30260E082E00E944D021FB7F894809194
:1021A0000D04811127C0ECE7F2E08491E2ECF2E04B
:1021B0009491E82FF0E0EE0FFF1FED5EFD4FA5912B
:1021C000B491EC91E92321F461E085E30E94C1011F
:1021D00061E085E30E944D028CB580618CBD8CB5B9
:1021E00080648CBD61E084E30E944D0261E083E382
:1021F0000E944D0280910D048F5F80930D041FBFDC
:102200009FB7F89480910B04806180930B048091B8
:102210000C04811103C081E080930C049FBF89E00E
:1022200080930F041092230481EC9AE090930302B0
:102230008093020280916A00836080936A00EC9A26
:1022400085E380930E0461E00E944D0261E085E326
:102250000E94C10180E00E94120B64E670E080E001
:1022600090E00E94A30210910F049E012F5F3F4F48
:1022700049011F3F11F40C945B1C60E0812F0E9408
:102280004D0261E0812F0E944D0260E0812F0E948B
:10229000C10162E070E080E090E00E94A30260E093
:1022A000812F0E944D026AE070E080E090E00E9481
:1022B000A3020E94900A24E030E04FEF50E060E07B
:1022C00070E080E194E00E943F0624E030E040E1CD
:1022D00054E06FEF70E083E00E949B0614E0E4E5B9
:1022E000F4E0DF01212F1D922A95E9F782E1809326
:1022F00055040E94FD07E4E1F4E0DF01212F1D9267
:102300002A95E9F724E030E0AF016FEF70E08EE04E
:102310000E949B0681E00E94120B65E070E080E065
:1023200090E00E94A302BE016F577F4F84E090E0CF
:102330000E948208D4011D921A95E9F7C557DF4F14
:1023400019821882CB58D04024E030E0A40170E01C
:1023500060E086E30E94060822E030E0AE014557C7
:102360005F4F66E070E08DE20E94060811E019837D
:1023700083E08A83C557DF4F1882CB58D04080E86E
:10238000C457DF4F8883CC58D04022E030E0A4010E
:1023900070E060E086E30E949B0622E030E0AE0140
:1023A00045575F4F66E070E08DE20E949B0665E056
:1023B00070E080E090E00E94A30219828A8182701E
:1023C0008A8322E030E0A40170E060E086E30E94AE
:1023D0009B0665E070E080E090E00E94A30280E050
:1023E0000E94120B65E070E080E090E00E94A30282
:1023F000B40188E090E00E948208B40189E090E096
:102400000E94820886ED91E00E943F090E94900A96
:1024100024E030E040E154E06FEF70E083E00E94A0
:10242000060824E030E044E554E06FEF70E084E01B
:102430000E94060824E030E040E554E06FEF70E0D1
:102440008FE10E94060825E030E048E554E06FEF98
:1024500070E088E00E94060824E030E044E154E0A7
:102460006FEF70E08EE00E9406080E946B071093E9
:102470001004109211048AE0809312041092130445
:102480000E94220724E030E040E154E06FEF70E06A
:1024900083E00E949B060E94FD0724E030E040E5B7
:1024A00054E06FEF70E08FE10E949B0625E030E082
:1024B00048E554E06FEF70E088E00E949B0624E05E
:1024C00030E044E154E06FEF70E08EE00E949B0644
:1024D0001091170222E030E040E758E860E070E039
:1024E000113041F0123059F422E030E04BE958E865
:1024F00060E070E0CE018F509F4F0E943F0624E0C5
:1025000030E047E059EA62E075E2CE0187559F4F1F
:102510000E943F0622E030E045E350E060E070E0DA
:10252000CE0181519F4F0E943F060091180222E088
:1025300030E046E150E060E070E0002381F022E00E
:1025400030E046E050E060E070E0013041F0023001
:1025500059F422E030E041E050E060E070E0CE016C
:102560008B519F4F0E943F0622E030E047E850E049
:1025700060E070E0113041F0123059F422E030E0B8
:102580004DE850E060E070E0CE0185529F4F0E9420
:102590003F06F0901502B6E0FB1631F0EAE0FE16B9
:1025A00019F0F3E0FF1275C022E030E044E650E09D
:1025B00060E070E0002309F47AC080911602883050
:1025C00009F085C024E030E04DE250E06AE171E3BB
:1025D000113009F48FC024E030E04BE650E06BE3AB
:1025E00071E3123009F486C031E0F312B2C022E088
:1025F00030E040E150E060E070E0CE0189539F4F51
:102600000E943F06F090130284E021E030E0F816CB
:1026100039F097E048ED50E060E070E0F91204C056
:102620004CEB50E060E070E0CE018A509F4F0E947A
:102630003F06A1E0FA1294C024E030E040E45CE5FB
:1026400060E070E0CE0185579F4F0E943F0621E079
:1026500030E049EC50E060E070E0CE018B509F4FDD
:102660000E943F0624E030E047E054E060E079E07B
:10267000CE018F579F4F0E943F0621E030E04EE190
:1026800050E060E070E0CE018C509F4F0E943F060A
:1026900016C121E0F21689F08FEF800F22E030E0C2
:1026A00040E250E060E070E0823008F086CFCE017A
:1026B0008F529F4F0E943F0680CF023009F07DCF9E
:1026C00022E030E040E150E060E070E0F0CF8031A7
:1026D000B9F424E030E042E550E06AE173E3113000
:1026E00049F024E030E04EEB50E06BE373E312304E
:1026F00009F07ACFCE0181569F4F0E943F0674CFDA
:10270000803291F424E030E04AE950E06AE175E378
:10271000113081F324E030E04EE551E06BE375E3E6
:10272000123009F061CFE6CF803409F05DCF24E0AC
:1027300030E04DE151E06AE177E31130D9F2123037
:1027400009F052CF24E030E046E952E06BE377E352
:10275000D1CF22E030E048E250E060E070E04DCFC1
:10276000B2E0FB1228C024E030E040EA5CE564E01F
:1027700070E0CE0185579F4F0E943F0621E030E078
:1027800042EC50E060E070E0CE018B509F4F0E9421
:102790003F0624E030E048E055E060E478E0CE0118
:1027A0008F579F4F0E943F0621E030E046E250E005
:1027B00060E070E068CFE3E0FE1228C024E030E083
:1027C00040EC5CE668E070E0CE0185579F4F0E94C8
:1027D0003F0621E030E045EC50E060E070E0CE01E3
:1027E0008B509F4F0E943F0624E030E049E050E1CB
:1027F00060E478E0CE018F579F4F0E943F0621E0B2
:1028000030E046E550E060E070E03DCFF4E0FF12DC
:1028100012C024E030E040E85CE564E070E0CE0106
:1028200085579F4F0E943F0621E030E045E950E088
:1028300060E070E0A9CF25E0F21228C024E030E08B
:1028400040EE5FE36EE170E0CE0185579F4F0E943E
:102850003F0621E030E040EC50E060E070E0CE0167
:102860008B509F4F0E943F0624E030E04DE154E042
:1028700060E078E0CE018F579F4F0E943F0621E035
:1028800030E04EEB50E060E070E0FDCE37E0F31258
:1028900012C024E030E040EE5DE76EE170E0CE0172
:1028A00085579F4F0E943F0621E030E043E950E00A
:1028B00060E070E0D4CF8F2D8D7F8530A9F221E0CC
:1028C00030E04DE050E060E070E0CE0189509F4F75
:1028D0000E943F0622E030E047E056E160E070E011
:1028E000113041F0123059F422E030E047E056E078
:1028F00060E070E0CE0183549F4F0E943F068091BC
:1029000012029FEF980F923008F0CFC222E030E021
:1029100043E35BE060E070E0002321F048E959E523
:1029200060E070E0CE018D549F4F0E943F068FEF14
:102930008F0D823008F081C3113009F06DC3809192
:10294000180424E030E045E755E565E375E18111C1
:1029500003C045E755E7BA01CE018B569F4F0E9451
:102960003F06B4018EE190E00E9482084981411146
:10297000F4C321E030E040E750E060E070E0CE01D9
:102980008D509F4F0E943F0622E030E0AE014F5035
:102990005F4F64E070E083E20E949B0624E030E039
:1029A000AE0147555F4F6CE070E083E20E949B06EA
:1029B00022E030E0AE0141515F4F62E170E083E21E
:1029C0000E949B0622E030E0AE014B515F4F62E077
:1029D00070E087E20E949B0622E030E0AE014552A3
:1029E0005F4F64E070E087E20E949B0622E030E0E7
:1029F000AE014F525F4F66E070E087E20E949B0697
:102A000024E030E0AE0141565F4F68E070E087E2BD
:102A10000E949B0622E030E0AE0149535F4F66E220
:102A200070E087E20E949B0621E030E0AE01495051
:102A30005F4F66E078E08EE20E949B0622E030E085
:102A4000AE0143545F4F66E078E18EE20E949B0640
:102A500022E030E0AE014D545F4F64E078E28EE258
:102A60000E949B0624E030E0AE014B565F4F6FEFB3
:102A700070E08EE10E949B0621E030E0AE014A50FA
:102A80005F4F6BE070E088E20E949B0624E030E03C
:102A9000AE0145575F4F6CE070E088E20E949B06F4
:102AA00021E030E0AE014B505F4F6BE070E08AE216
:102AB0000E949B0621E030E0AE014C505F4F6BE07E
:102AC00070E08BE20E949B0624E030E0AE014F579D
:102AD0005F4F67E070E08BE20E949B0621E030E0F0
:102AE000AE014D505F4F6EE070E08BE20E949B069E
:102AF0002091000530910105409102055091030598
:102B00006091040570910505809106059091070577
:102B1000A0E00E943F20C1F480911904811114C0EB
:102B20001092000580E48093010510920205109236
:102B300003051092040510920505109206051092E7
:102B4000070581E080931904B4018EEF94E00E94A0
:102B50003B0A22E030E0A4016FEF70E088E10E94C0
:102B60009B0622E030E0A40164E078E18EE20E945E
:102B70009B068AEB91E00E943F0924E030E0AE0121
:102B80004F575F4F6FEF70E080E00E940608CF570D
:102B9000DF4F8881C158D040982F9F701F929F931C
:102BA00082958F701F928F93CE57DF4F8881C258C6
:102BB000D0401F928F93CC57DF4F8881C458D040AC
:102BC0008F93CD57DF4F8881C358D0408F938CE8C7
:102BD00092E09F938F939F928F920E94522288EB54
:102BE00092E00E94CD08C4010E94310928E030E043
:102BF000AE014F575F4F6FEF70E081E00E94060813
:102C0000CF57DF4F8881C158D0401F928F93CE5746
:102C1000DF4F8881C258D0401F928F93CD57DF4F2E
:102C20008881C358D0401F928F93CC57DF4F888143
:102C3000C458D0401F928F93CB57DF4F8881C5581F
:102C4000D0401F928F93CA57DF4F8881C658D0401B
:102C50001F928F93C957DF4F8881C758D0401F926A
:102C60008F93C857DF4F8881C858D0401F928F93E9
:102C700084EC92E09F938F939F928F920E945222B6
:102C80000FB6F894DEBF0FBECDBF8CEE92E00E946F
:102C9000CD08C4010E94310924E030E0AE014F5755
:102CA0005F4F6FEF70E083E00E940608CE57DF4F62
:102CB0008881C258D0408F93CF57DF4F8881C15849
:102CC000D0408F93CC57DF4F8881C458D0408F932A
:102CD000CD57DF4F8881C358D0408F9388EF92E063
:102CE0009F938F939F928F920E94522287E193E04D
:102CF0000E94CD08C4010E943109809117020FB6CD
:102D0000F894DEBF0FBECDBF40E1813021F040E43A
:102D1000823009F040E080911502813009F425C22B
:102D2000853009F425C2893009F424C28D3009F4B4
:102D300024C2823009F424C2863009F424C28A30C5
:102D400009F424C2833009F024C280E090E120918C
:102D50001802222309F41FC2213009F41FC22230B5
:102D600009F01FC220E93AE1509113021F925F93CC
:102D7000509112021F925F939F938F931F924F93D4
:102D80003F932F9385E393E09F938F939F928F922E
:102D90000E94522284E893E00E94CD08C4010E9460
:102DA000310985ED92E090931D0480931C0480917D
:102DB000350490E00E941E0989ED92E090931B0477
:102DC00080931A048091340490E00E941E090E94AE
:102DD000B20A0E946B0781E080931E048091570421
:102DE0008062809357040E94FD070E94E4070E94BE
:102DF00019042FB7F8948091370490913804A0916A
:102E00003904B0913A042FBF809324049093250491
:102E1000A0932604B09327040FB6F894DEBF0FBE2C
:102E2000CDBF22242A9483E0382E8FB7F8944090A7
:102E30003704509038046090390470903A048FBF82
:102E4000809135048111AFC1809134048111ABC1EF
:102E500082E993E00E94310980913004909131041D
:102E6000A0913204B0913304481A590A6A0A7B0AC5
:102E70009BEF4916510461047104A0F010922F04D5
:102E80000E94B20A0E946B0781E080931E04809129
:102E900057048062809357040E94FD070E94E40754
:102EA0000E9419040E94E803C0CF833011F08830DB
:102EB00071F422E030E04DE35AE060E070E000237E
:102EC00009F430CD4AEE51E560E070E02BCD84305E
:102ED00071F422E030E041E558E060E070E000236A
:102EE00009F420CD4EE852E460E070E01BCD85305F
:102EF00071F422E030E043EA58E060E070E0002343
:102F000009F410CD4EE155E460E070E00BCD863061
:102F100071F422E030E042EC55E060E070E0002324
:102F200009F400CD44E15EE260E070E0FBCC873064
:102F300071F422E030E040E050E160E070E0002316
:102F400009F4F0CC40E050E860E070E0EBCC893070
:102F500071F422E030E04EE155E060E070E00023E3
:102F600009F4E0CC44EF58E260E070E0DBCC8A305A
:102F700011F0813171F422E030E046E656E060E085
:102F800070E0002309F4CECC42E353E360E070E04C
:102F9000C9CC8B3071F422E030E04CE557E060E0C2
:102FA00070E0002309F4BECC40EE5AE360E070E02C
:102FB000B9CC8C3071F422E030E04EEA57E060E0AA
:102FC00070E0002309F4AECC40E75DE360E070E020
:102FD000A9CC9EEE980F923070F422E030E048EBDE
:102FE00056E060E070E0002309F49CCC42EC55E32D
:102FF00060E070E097CC843109F099CC22E030E0B9
:1030000045EF58E060E070E0002309F48BCC4EEA15
:1030100057E460E070E086CC123009F0A2CC8091D9
:10302000180424E030E047E657E467E277E08111D6
:1030300093CC47E657E6BA018FCC83E0F81221C063
:10304000113071F48091180424E030E04FE65FE421
:103050006FE27FE0811180CC4FE65FE6BA017CCC65
:10306000123009F07ECC8091180424E030E04BE867
:103070005BE66BE47BE281116FCC4BE85BE8BA0165
:103080006BCC94E0F91221C0113071F480911804D6
:1030900024E030E04FE55FE36FE17FE181115CCC3C
:1030A0004FE55FE5BA0158CC123009F05ACC809157
:1030B000180424E030E04AE95AE76AE57AE381112E
:1030C0004BCC4AE95AE9BA0147CCA5E0FA1221C033
:1030D000113071F48091180424E030E048E458E2A3
:1030E00068E07EE0811138CC48E458E4BA0134CC81
:1030F000123009F036CC8091180424E030E045E825
:1031000055E665E475E2811127CC45E855E8BA013A
:1031100023CCB7E0FB1225CC113071F48091180458
:1031200024E030E042E952E762E572E3811114CC19
:1031300042E952E9BA0110CC123009F012CC809168
:10314000180424E030E041ED51EB61E771E58111B5
:1031500003CC41ED51EDBA01FFCB4F71406650E019
:1031600070E060E021E030E00ACC80E490E0EFCD58
:1031700080E8FCCF80E091E0EACD80E092E0E7CD0E
:1031800080E094E0E4CD80E096E0E1CD80E098E05E
:10319000DECD80E0EBCF2EE630E0E6CD22E533E079
:1031A000E3CD20E0F9CF809135048823C9F087EB87
:1031B00093E00E9431091092350480913F048130E0
:1031C00079F425E030E0A40170E060E087E10E943E
:1031D0000608B40181E796E00E941C050E941904CC
:1031E00080913404882309F45DCE8BEA93E00E9439
:1031F00031091092340420E130E04FE354E06FEFE6
:1032000070E081E10E94060880913F0490912F04B4
:10321000891719F091E090932E048111A4C01092A7
:103220002E0487E696E00E94190C82E080932F041A
:103230000E94A30A0E946B0781E080933F04809163
:103240002304823009F07DC080911F048460809344
:103250001F04C4010E94240625E030E0AE014F5750
:103260005F4F6FEF70E086E00E940608BE016F5767
:103270007F4FC4010E941C052B813C814D815E81E2
:103280006F81788589859A854359544F6F4F7F4F59
:103290008F4F9F4F2B833C834D835E836F83788753
:1032A00089879A87BE0165577F4FC4010E943B0AF8
:1032B000C557DF4F1882CB58D040C457DF4F8881A5
:1032C000CC58D0408E7FC457DF4F8883CC58D04035
:1032D00025E030E0AE0145575F4F6FEF70E08AE0C8
:1032E0000E949B06BE0165577F4FC4010E941C05CA
:1032F0002091000530910105409102055091030590
:10330000609104057091050580910605909107056F
:10331000AB80BC80CD80DE80EF80F88409851A8583
:103320000E9421202B833C834D835E836F837887AB
:1033300089879A87B401CE018F579F4F0E94580505
:103340000DC0813031F4809120048260809320048C
:1033500080CFCE018F579F4F0E9424060E94AE0758
:103360000E945B0A9DCD823009F09CCD8FE896E0EB
:103370000E94190C10922F0480912E04811190C28A
:1033800060E474E08DE596E00E941C0565E474E05D
:103390008BE796E00E941C056AE474E085E896E0FD
:1033A0000E941C054DE556E06BE776E0C4010E94E3
:1033B0008605C4010E94EC04BC01CE018B519F4FD5
:1033C0000E94580547E656E061E776E0C4010E9496
:1033D0008605C4010E94EC04BC01CE0185529F4FBA
:1033E0000E94580541E756E06FE876E0C4010E946C
:1033F0008605C4010E94EC04BC01CE018F529F4F90
:103400000E9458054BE756E065E876E0C4010E944B
:103410008605C4010E94EC04BC01CE0189539F4F74
:103420000E945805AE014F525F4FBE016B517F4F56
:10343000CE018B569F4F0E94D705AE0145525F4F7C
:10344000BE016B567F4FCE0185579F4F0E94D70517
:10345000AE0149535F4FBE0165577F4FCE018F5775
:103460009F4F0E94D705BE0165527F4FC4010E9445
:103470005805AB80BC80CD80DE80EF80F884098564
:103480001A85C753DF4F2881C95CD040C653DF4F30
:103490003881CA5CD040C553DF4F4881CB5CD040F7
:1034A000C453DF4F5881CC5CD040C353DF4F688199
:1034B000CD5CD040C253DF4F7881CE5CD040C15349
:1034C000DF4F8881CF5CD040C053DF4F9881C05D13
:1034D000D0400E94BC1E2B833C834D835E836F8350
:1034E000788789879A87B401CE0187559F4F0E94BC
:1034F0005805BE016B517F4FC4010E945805AB8037
:10350000BC80CD80DE80EF80F88409851A85CD529D
:10351000DF4F2881C35DD040CC52DF4F3881C45D7E
:10352000D040CB52DF4F4881C55DD040CA52DF4FFB
:103530005881C65DD040C952DF4F6881C75DD04019
:10354000C852DF4F7881C85DD040C752DF4F8881B5
:10355000C95DD040C652DF4F9881CA5DD0400E94FD
:10356000BC1E2B833C834D835E836F837887898762
:103570009A87B401CE018D549F4F0E945805AE0129
:1035800047555F4FBE016D547F4FCE0181569F4F0F
:103590000E948605BE0161567F4FC4010E945805F6
:1035A000CD57DF4FA880C358D040CC57DF4FB880ED
:1035B000C458D040CB57DF4FC880C558D040CA57F9
:1035C000DF4FD880C658D040C957DF4FE880C75872
:1035D000D040C857DF4FF880C858D040C757DF4F9A
:1035E0000881C958D040C657DF4F1881CA58D0400B
:1035F0002B813C814D815E816F81788589859A859B
:103600000E94161F2B833C834D835E836F837887D4
:1036100089879A87B401CE0183549F4F0E94580531
:10362000C154DF4FF880CF5BD040C054DF4F0881DA
:10363000C05CD040CF53DF4FC880C15CD040CE5378
:10364000DF4FD880C25CD040CD53DF4F1881C35CC0
:10365000D040CC53DF4F9881C45CD040CB53DF4F78
:103660008881C55CD040CA53DF4FE880C65CD0403B
:10367000F0929B0600939C06C0929D06D0929E06F7
:1036800010939F069093A0068093A106E092A20655
:103690000E94A30A0E946B0730923F04BC2DFD2DAF
:1036A000E12FD12CC12C1E2D10782F2D302F4B2F18
:1036B0005F2F6E2F70E080E0912FA0E00E943F20EE
:1036C0008CF4AFEF0E942A207FEF8FEF9FEFA1E0F5
:1036D0000E942A20F22E032FB42FF52FE62FD72E8B
:1036E000C82E192F2F2D302F4B2F5F2F6E2F7D2D92
:1036F0008C2D912F0E94602125E338E443E857E3A5
:103700000E94931D6093400470934104809342048F
:10371000909343040E94AE070E945B0AE091A206C8
:10372000F0909B0600919C0610919D06B0919E061C
:10373000F0919F06E12CD12CE0782F2D302F412FD6
:103740005B2F6F2F70E080E09E2FA0E00E943F2053
:103750008CF4AFEF0E942A207FEF8FEF9FEFA1E064
:103760000E942A20F22E032F142FB52FF62FE72EBA
:10377000D82EE92F2F2D302F412F5B2F6F2F7E2D2D
:103780008D2D9E2F0E9460212EE53DEB49E95BE3E4
:103790000E94931D6B017C018FEB93E00E94CD088A
:1037A00042E0C701B6010E945F0987EC93E00E94E6
:1037B000CD088AEC93E00E94CD080E94550B42E0B0
:1037C0000E945F0987ED93E00E94CD088CED93E0A5
:1037D0000E94CD0860912A0470912B0480912C04E2
:1037E00090912D0442E00E945F0989EE93E00E94CF
:1037F000310960912804709129046F5F7F4F7093A5
:103800002904609328048091240490912504A091B8
:103810002604B091270473016201C81AD90AEA0A82
:10382000FB0AA9EECA16A3E0DA06E104F10408F4E3
:1038300037CB90E080E00E94321D20E030E04AE784
:1038400054E40E94931DC850DF4F688379838A83B4
:103850009B83C85FD040C701B6010E94321D9B0107
:10386000AC01C850DF4F688179818A819B81C85F34
:10387000D0400E94B82060932A0470932B04809358
:103880002C0490932D0440922404509225046092BD
:10389000260470922704109229041092280400CB69
:1038A0008DEE93E00E9431090E94A30A0E946B07EB
:1038B00020923F0453CD24E030E0A40170E060E0AA
:1038C00086E30E94060881E0898324E030E0A401B9
:1038D00070E060E086E30E949B061C8224E030E0FA
:1038E000A40170E060E086E30E949B066AE070E05D
:1038F00080E090E00E94A302198280EF8C8324E094
:1039000030E0A40170E060E086E30E949B060C9426
:1039100059118F929F92AF92BF92CF92DF92EF9206
:10392000FF92CF93DF93EC01688179818A819B813B
:10393000611571058105910521F464E279ED8BE54E
:1039400097E02DE133EF41E050E00E94511E490124
:103950005A019B01AC01A7EAB1E40E94701E6B0101
:103960007C01ACEEB4EFA50194010E947E1EC60E50
:10397000D71EE81EF91EF7FE06C081E0C81AD1085E
:10398000E10880E8F80AC882D982EA82FB82C7018E
:10399000B6019F77DF91CF91FF90EF90DF90CF90AE
:1039A000BF90AF909F908F9008958F929F92AF920B
:1039B000BF92CF92DF92EF92FF92609119027091C5
:1039C0001A0280911B0290911C02611571058105FC
:1039D000910521F464E279ED8BE597E02DE133EF79
:1039E00041E050E00E94511E49015A019B01AC0187
:1039F000A7EAB1E40E94701E6B017C01ACEEB4EF4B
:103A0000A50194010E947E1EC60ED71EE81EF91E57
:103A1000F7FE06C081E0C81AD108E10880E8F80A7C
:103A2000C0921902D0921A02E0921B02F0921C027C
:103A3000C701B6019F77FF90EF90DF90CF90BF90C6
:103A4000AF909F908F9008956093190270931A021F
:103A500080931B0290931C0208950E946F1D08F42E
:103A600081E00895E89409C097FB3EF49095809515
:103A7000709561957F4F8F4F9F4F9923A9F0F92F34
:103A800096E9BB279395F695879577956795B795B2
:103A9000F111F8CFFAF4BB0F11F460FF1BC06F5F98
:103AA0007F4F8F4F9F4F16C0882311F096E911C0AA
:103AB000772321F09EE8872F762F05C0662371F0CB
:103AC00096E8862F70E060E02AF09A95660F771FDF
:103AD000881FDAF7880F9695879597F90895990FBB
:103AE0000008550FAA0BE0E8FEEF16161706E807C8
:103AF000F907C0F012161306E407F50798F0621BE9
:103B0000730B840B950B39F40A2661F0232B242BBD
:103B1000252B21F408950A2609F4A140A6958FEFDC
:103B2000811D811D08950E94A61D0C94171E0E94E0
:103B3000091E38F00E94101E20F0952311F00C94FD
:103B4000001E0C94061E11240C944B1E0E94281E6D
:103B500070F3959FC1F3950F50E0551F629FF001E0
:103B6000729FBB27F00DB11D639FAA27F00DB11DF9
:103B7000AA1F649F6627B00DA11D661F829F222782
:103B8000B00DA11D621F739FB00DA11D621F839F09
:103B9000A00D611D221F749F3327A00D611D231FDF
:103BA000849F600D211D822F762F6A2F11249F572D
:103BB00050409AF0F1F088234AF0EE0FFF1FBB1F30
:103BC000661F771F881F91505040A9F79E3F5105EF
:103BD00080F00C94001E0C944B1E5F3FE4F3983E63
:103BE000D4F3869577956795B795F795E7959F5F99
:103BF000C1F7FE2B880F911D9695879597F908952B
:103C000097F99F6780E870E060E008959FEF80EC8F
:103C1000089500240A941616170618060906089532
:103C200000240A9412161306140605060895092E98
:103C30000394000C11F4882352F0BB0F40F4BF2B07
:103C400011F460FF04C06F5F7F4F8F4F9F4F089547
:103C500057FD9058440F551F59F05F3F71F047953D
:103C6000880F97FB991F61F09F3F79F08795089522
:103C7000121613061406551FF2CF4695F1DF08C041
:103C8000161617061806991FF1CF8695710561055E
:103C900008940895E894BB2766277727CB0197F906
:103CA0000895052E97FB1EF400940E94681E57FD90
:103CB00007D00E94831E07FC03D04EF40C94681EAC
:103CC00050954095309521953F4F4F4F5F4F089548
:103CD00090958095709561957F4F8F4F9F4F089578
:103CE0000E94A51EA59F900DB49F900DA49F800DCE
:103CF000911D11240895B7FF0C94701E0E94701E30
:103D0000821B930B0895A1E21A2EAA1BBB1BFD0177
:103D10000DC0AA1FBB1FEE1FFF1FA217B307E407AA
:103D2000F50720F0A21BB30BE40BF50B661F771F02
:103D3000881F991F1A9469F76095709580959095E2
:103D40009B01AC01BD01CF010895A29FB001B39FBB
:103D5000C001A39F700D811D1124911DB29F700D94
:103D6000811D1124911D0895EE0FFF1F881F8BBF29
:103D70000790F691E02D1994DF93CF931F930F9343
:103D80009A9DF02D219FF00D8B9DF00D8A9DE02DC9
:103D9000F10D039FF00D029FE00DF11D4E9DE00D12
:103DA000F11D5E9DF00D4F9DF00D7F936F93BF92BF
:103DB000AF925F934F93D5010E94A51E8B01AC017A
:103DC000D7010E94A51EEB01E80FF91FD6010E9442
:103DD0000B1F2F913F91D6010E94A51EC60FD71F22
:103DE000E81FF91FAF91BF910E940B1F2F913F91C8
:103DF0000E94A51EC60FD71FE81FF91FD6010E94FB
:103E0000A51EE60FF71F9801BE01CF010F911F916C
:103E1000CF91DF9108950E94A51E460F571FC81F1E
:103E2000D91F08F431960895689401C0E894F92FD9
:103E3000F12B12F00C94481FA0E0B0E0E2E2FFE1A9
:103E40000C94BA1F092E059422F40E94A41F11237A
:103E500092F4F0E80F26FFEFE094F09400951095AF
:103E6000B094C094D094A194BF0ACF0ADF0AEF0A9D
:103E7000FF0A0F0B1F0B0E94531F07FC0E94A41F79
:103E8000CDB7DEB7ECE00C94D61F689401C0E8947F
:103E90008F929F92CF93DF930E94531FDF91CF9118
:103EA0009F908F90089588249924F401E401B0E450
:103EB0009F93AA279A158B049C04ED05FE05CF0558
:103EC000D007A10798F4AD2FDC2FCF2FFE2FE92DBF
:103ED000982C892E982F872F762F652F542F432FBC
:103EE000322F2227B85031F7BF9127C01B2EBF9128
:103EF000BB27220F331F441F551F661F771F881FC4
:103F0000991F881C991CEE1FFF1FCC1FDD1FAA1FC5
:103F1000BB1F8A149B04EC05FD05CE05DF05A00739
:103F2000B10748F08A189B08EC09FD09CE09DF09A2
:103F3000A00BB10B21601A94E1F62EF49401AF01AD
:103F4000BE01CD01000C0895609570958095909507
:103F500030954095509521953F4F4F4F5F4F6F4F94
:103F60007F4F8F4F9F4F08952F923F924F925F92B6
:103F70006F927F928F929F92AF92BF92CF92DF9279
:103F8000EF92FF920F931F93CF93DF93CDB7DEB7DE
:103F9000CA1BDB0B0FB6F894DEBF0FBECDBF199462
:103FA0002A88398848885F846E847D848C849B84C9
:103FB000AA84B984C884DF80EE80FD800C811B81D7
:103FC000AA81B981CE0FD11D0FB6F894DEBF0FBE06
:103FD000CDBFED010895002E083090F0982F872F67
:103FE000762F652F542F432F322F22270850F4CFDE
:103FF000220F331F441F551F661F771F881F991FED
:104000000A95B2F7002D089597FD1094002E083000
:1040100098F00850232F342F452F562F672F782FD5
:10402000892F912DF4CF159497958795779567955E
:1040300057954795379527950A95AAF71124002D8E
:1040400008952A0D3B1D4C1D5D1D6E1D7F1D801F9B
:10405000911F08950024A7FD00942A0F301D401DD4
:10406000501D601D701D801D901D08952A193B096B
:104070004C095D096E097F09800B910B089500249E
:10408000A7FD00942A17300540055005600570050E
:104090008005900508955058BB27AA270E946320E9
:1040A0000C94171E0E94091E38F00E94101E20F06A
:1040B00039F49F3F19F426F40C94061E0EF4E09593
:1040C000E7FB0C94001EE92F0E94281E58F3BA1734
:1040D000620773078407950720F079F4A6F50C941E
:1040E0004A1E0EF4E0950B2EBA2FA02D0B01B9013C
:1040F00090010C01CA01A0011124FF27591B99F05E
:10410000593F50F4503E68F11A16F040A22F232F69
:10411000342F4427585FF3CF469537952795A795B9
:10412000F0405395C9F77EF41F16BA0B620B730B60
:10413000840BBAF09150A1F0FF0FBB1F661F771FD1
:10414000881FC2F70EC0BA0F621F731F841F48F486
:10415000879577956795B795F7959E3F08F0B0CF0F
:104160009395880F08F09927EE0F979587950895F6
:104170000E94CC200C94171E0E94101E58F00E9422
:10418000091E40F029F45F3F29F00C94001E5111E4
:104190000C944B1E0C94061E0E94281E68F3992353
:1041A000B1F3552391F3951B550BBB27AA27621733
:1041B0007307840738F09F5F5F4F220F331F441F40
:1041C000AA1FA9F335D00E2E3AF0E0E832D0915074
:1041D0005040E695001CCAF72BD0FE2F29D0660F61
:1041E000771F881FBB1F261737074807AB07B0E8A4
:1041F00009F0BB0B802DBF01FF2793585F4F3AF0AA
:104200009E3F510578F00C94001E0C944B1E5F3FAE
:10421000E4F3983ED4F3869577956795B795F7952F
:104220009F5FC9F7880F911D9695879597F9089517
:10423000E1E0660F771F881FBB1F621773078407B3
:10424000BA0720F0621B730B840BBA0BEE1F88F7C2
:10425000E09508950E9431216894B1110C944B1E91
:1042600008950E94301E88F09F5798F0B92F992723
:10427000B751B0F0E1F0660F771F881F991F1AF051
:10428000BA95C9F714C0B13091F00E944A1EB1E04E
:1042900008950C944A1E672F782F8827B85F39F04D
:1042A000B93FCCF3869577956795B395D9F73EF4EA
:1042B00090958095709561957F4F8F4F9F4F089592
:1042C00097FB16F40E94A4210C946721E894F92F1F
:1042D00096EBFF2381F0121613061406440B9395F8
:1042E000F69587957795679557954040FF23B9F7E1
:1042F0001BC099270895882351F49850D2F7872B33
:10430000762F652F542F432F322F20E0B1F3121652
:1043100013061406440B88233AF09A95440F551F50
:10432000661F771F881FCAF755234AF4440F551F8D
:1043300011F460FF04C06F5F7F4F8F4F9F4F880F56
:104340009695879597F908959095809570956095C5
:1043500050954095309521953F4F4F4F5F4F6F4F90
:104360007F4F8F4F9F4F08950E946F1D08F48FEF6E
:1043700008950E94C92129ED3BE54EED5EE30C94C2
:10438000931D16F00C9416220C94061E68940C943F
:10439000001E0E94301EA8F39923C1F3AEF3DF93F1
:1043A000CF931F930F93FF92C92FDD2788232AF005
:1043B0002197660F771F881FDAF720E030E040E88A
:1043C0005FEB9FE3883920F0803E38F021968F77AD
:1043D0000E944C20E4EEF0E004C00E944C20E1E199
:1043E000F1E00E9424228B01BE01EC01FB2E6F57ED
:1043F00071097595771F880B990B0E94341D28E170
:1044000032E741E35FE30E94A61DAF2D9801AE01A4
:10441000FF900F911F91CF91DF910E9463200C9428
:10442000171E0E946F1D880B990B08959F3F31F056
:10443000915020F4879577956795B795880F911DD2
:104440009695879597F90895DF93CF931F930F93D0
:10445000FF92EF92DF927B018C01689406C0DA2E06
:10446000EF010E94A61DFE01E894A59125913591CA
:1044700045915591A6F3EF010E946320FE0197013B
:10448000A801DA9469F7DF90EF90FF900F911F91E8
:10449000CF91DF910895DC0101C06D9341505040F0
:1044A000E0F708950F931F93CF93DF93CDB7DEB757
:1044B0002E970FB6F894DEBF0FBECDBF0E891F89B1
:1044C00086E08C831A8309838FEF9FE79E838D8319
:1044D000AE01465E5F4F688D798DCE0101960E94D8
:1044E00082222F813885020F131FF80110822E9629
:1044F0000FB6F894DEBF0FBECDBFDF91CF911F91F5
:104500000F9108952F923F924F925F926F927F92F8
:104510008F929F92AF92BF92CF92DF92EF92FF92D3
:104520000F931F93CF93DF9300D000D000D01F9242
:104530001F92CDB7DEB77C013B018A01FC011782D7
:104540001682838181FFDDC1CE0101965C01F701F6
:104550009381F30193FD859193FF81913F0188231E
:1045600009F453C1853239F493FD859193FF81910C
:104570003F01853229F4B70190E00E949A24E7CFE9
:10458000912C212C312CFFE1F31538F08B3211F1F5
:1045900090F4803209F1833229F137FC3CC020EDE0
:1045A000280F2A3050F536FE20C08AE0989E200D54
:1045B0001124922E06C08D3291F0803371F76894E9
:1045C00030F8F30193FD859193FF81913F018111B3
:1045D000DACF21C0689431F8689432F8F2CF689449
:1045E00033F8EFCF689434F8ECCFEAE02E9E200D3C
:1045F0001124222E689435F8E4CF8E3229F436FC4B
:1046000004C1689436F8DDCF8C3619F4689437F815
:10461000D8CF8836B1F2982F9F7D95549330E0F033
:104620008336A1F18337C1F1833509F063C02801D6
:10463000F2E04F0E511CF801C080D180692D70E06E
:1046400036FC02C06FEF7FEFC6010E9484244C014C
:10465000689437F882010AC00C5F1F4FFFE3F983AB
:1046600088248394912C6501E89437F833FE2DC09B
:10467000522C8114910471F5552009F468CFB701CB
:1046800080E290E00E949A245A94F6CFF80180814B
:1046900089830E5F1F4FE4CF2801F2E04F0E511CBB
:1046A000F801C080D180692D70E036FC02C06FEF48
:1046B0007FEFC6010E948F244C018201D5CFB70144
:1046C00080E290E00E949A242A942814190409F0A8
:1046D000B0F7CECFF60137FC859137FE81916F019F
:1046E000B70190E00E949A2451105A94F1E08F1A79
:1046F0009108BFCF843619F0893609F077C0F801E8
:1047000037FE6BC060817181828193810C5F1F4F86
:10471000F32DFF763F2E97FF09C0909580957095F9
:1047200061957F4F8F4F9F4F689437F82AE030E0B4
:10473000A5010E94CA24C82ECA188C2C432C36FE10
:104740000CC0E89440F8C91440F434FE05C032FCB3
:1047500003C0F32DFE7E4F2E892C44FEAAC0FE011D
:10476000EC0DF11D8081803309F09CC0242D297E41
:10477000422E842D8870582E43FCAAC040FEA4C04F
:104780009C2C821418F42C0C922C981844FEA6C071
:10479000B70180E390E00E949A2442FE09C088E7B6
:1047A00090E041FE02C088E590E0B7010E949A24A3
:1047B000C91408F49FC0CA94D12C9FEFC91AD90A12
:1047C000CA0CDB1CF60182916F01B70190E00E94D8
:1047D0009A24AC14BD04B1F74FCF60817181072ECC
:1047E000000C880B990B0E5F1F4F92CFD32CE894CF
:1047F000D4F82AE030E08537E1F1232D297FD22E4D
:104800008F36A9F1F0F4883551F1F701868197814F
:104810002B960FB6F894DEBF0FBECDBFDF91CF91C0
:104820001F910F91FF90EF90DF90CF90BF90AF90CE
:104830009F908F907F906F905F904F903F902F90C0
:104840000895803749F0883701F7D4FE02C0689494
:10485000D2F820E130E00DC06894D4F8F6CF34FEF1
:1048600003C0822F8660D82E20E132E002C028E00B
:1048700030E0F801D7FE0FC06081718182819381A1
:104880000C5F1F4FA5010E94CA24C82ECA183D2CD8
:10489000E89437F852CF6081718190E080E00E5F3C
:1048A0001F4FF0CF42FC02C0839463CF8394839464
:1048B00060CF842D867809F45CCFF6CFB70180E213
:1048C00090E00E949A2483948214C0F3512C5ECF0E
:1048D000522C5818821408F459CFF8CF842D8678BA
:1048E00009F466CF8BE241FE80E247FC8DE2B7011E
:1048F00090E05CCFB70180E390E00E949A249A9404
:1049000057CF8FEF9FEF84CFFC010590615070402F
:104910000110D8F7809590958E0F9F1F0895FC0188
:104920006150704001900110D8F7809590958E0FDE
:104930009F1F08950F931F93CF93DF93182F092F75
:10494000EB018B8181FD09C01FEF0FEF812F902FAD
:10495000DF91CF911F910F91089582FF14C02E8196
:104960003F818C819D81281739073CF4E881F981CA
:10497000CF0101969983888310838E819F81019650
:104980009F838E83E3CFE885F985812F1995892B45
:10499000A1F3DACFFA01AA27283051F1203181F1B1
:1049A000E8946F936E7F6E5F7F4F8F4F9F4FAF4F37
:1049B000B1E03ED0B4E03CD0670F781F891F9A1F4A
:1049C000A11D680F791F8A1F911DA11D6A0F711DFE
:1049D000811D911DA11D20D009F468943F912AE00A
:1049E000269F11243019305D3193DEF6CF010895F2
:1049F000462F4770405D4193B3E00FD0C9F7F6CF23
:104A0000462F4F70405D4A3318F0495D31FD4052EA
:104A1000419302D0A9F7EACFB4E0A6959795879580
:104A200077956795BA95C9F700976105710508955F
:104A30009B01AC010A2E069457954795379527950B
:104A4000BA95C9F7620F731F841F951FA01D0895A3
:044A5000F894FFCF08
:104A5400FC04DD02DD02DD02DD02DD02DD02DD0239
:104A6400DD0204050105080102010000006E69640D
:104A74005D5245331B0015232A313E474C5156C61F
:104A8400BBB3A38F7F6D543B1F00244154616A6EF6
:104A940070938575634B321D00182D3F4C5762741B
:104AA4007A848E897A6958452F190015304F697FA9
:104AB40093A0A9B2C5000000002D04000000007BF3
:104AC40003E5021203C8034303210335030D0A005F
:104AD4006E616E00696E66006F766600253032582E
:104AE400202D206D6F64656C3A2025642C2076653A
:104AF4007273696F6E3A2025642C2072657669732F
:104B0400696F6E3A202564004465766963652049BF
:104B1400443A2000253032583A253032583A25306C
:104B240032583A253032583A253032583A25303204
:104B3400583A253032583A2530325800556E69714A
:104B440075652049443A200050414E3A20253032C0
:104B5400582C2053686F72742041646472657373B7
:104B64003A2025303258004E6574776F726B2049B5
:104B74004420262044657669636520416464726537
:104B840073733A20004461746120726174653A2041
:104B94002575206B622F732C205052463A202575C0
:104BA400204D487A2C20507265616D626C653A2004
:104BB40025752073796D626F6C732028636F64654B
:104BC40020232575292C204368616E6E656C3A207C
:104BD40023257500446576696365206D6F64653AC5
:104BE40020007765207265616368656420217365C0
:104BF4006E7441636B20616E642021726563656924
:104C040076656441636B0073656E7441636B005237
:104C1400616E67653A2000206D00092052582070AB
:104C24006F7765723A20002064426D000920536159
:104C34006D706C696E673A200020487A0074726166
:104C44006E736D697452616E67654661696C0000CC
:00000001FF
